:100000000C942A000C9447000C9447000C94470071
:100010000C9447000C9447000C946D000C9447001E
:100020000C9447000C9447000C9447000C94470034
:100030000C9447000C9447000C9447000C94470024
:100040000C9447000C9447000C9447000C94470014
:100050000C94470011241FBECFE5D4E0DEBFCDBF16
:1000600010E0A0E6B0E0E6E5F4E002C005900D92F5
:10007000A836B107D9F720E0A8E6B0E001C01D928C
:10008000A037B207E1F70E94F4010C9429020C9406
:10009000000085B78F6085BF8FEF81BB17BA93E0F3
:1000A00098BBE8E6F0E092E0908312821182EBE6E2
:1000B000F0E098E09083128211829FB59FBD9EB5BB
:1000C0009B609EBD24E83EE13BBD2ABD99B790618F
:1000D00099BF84BB85BB789408951F920F920FB689
:1000E0000F9211248F939F9395B381E0892785BB4D
:1000F0009F918F910F900FBE0F901F901895909821
:100100009298919892B39F7092BB92B3282F207FC0
:10011000922B92BB9198929AE3EFF1E03197F1F72D
:1001200000C00000929892B39F7092BB22B3F0E19E
:100130008F9FC0011124822B82BB929A83EF91E0A2
:100140000197F1F700C0000092980895909A919855
:10015000929892B39F7092BB92B3282F207F922BDC
:1001600092BB9198929AE3EFF1E03197F1F700C0DA
:100170000000929892B39F7092BB22B3F0E18F9FE0
:10018000C0011124822B82BB929A83EF91E00197E8
:10019000F1F700C000009298089590989298919875
:1001A00082B3806382BB8FE097E20197F1F700C0D2
:1001B0000000929A929881EE94E00197F1F700C0C6
:1001C0000000929A929881EE94E00197F1F700C0B6
:1001D0000000929A929883EF91E00197F1F700C0A6
:1001E000000082B3807282BB929A929888E20E9449
:1001F0007F0083ED90E30197F1F700C000008EE0EF
:100200000E947F0083ED90E30197F1F700C00000AA
:1002100081E00E947F0083ED90E30197F1F700C039
:10022000000086E00E947F0083ED90E30197F1F7E4
:1002300000C0000080E80E947F0083ED90E30197FA
:10024000F1F700C000000895CF93DF93EC0189918E
:10025000882319F00E94A600FACFDF91CF9108956C
:10026000883228F46111806480680C947F000895BE
:10027000EF92FF920F931F93CF93DF931F92CDB70F
:10028000DEB77C0168EE73E00E94010280E3860F16
:1002900069830E94A60088E19CEF6981689F9001B4
:1002A000699F300D11242E0D3F1DC901019704E6F1
:1002B00010E0B8010E94010280E3860F0E94A600B0
:1002C000C701B8010E9401020AE010E0B8010E94D3
:1002D000010280E3860F0E94A600C701B8010E94B8
:1002E0000102805D0F90DF91CF911F910F91FF90E0
:1002F000EF900C94A60010926F0080EF8ABB9FE0F5
:100300009BBBEFE4F3EC3197F1F700C0000029B399
:1003100020936F009ABB8BBBEFE4F3EC3197F1F7BE
:1003200000C0000029B380916F00822B80936F0082
:100330008E3B89F1A0F48E3781F140F48B37E9F1DF
:100340008D3799F18737D9F580E122C08B3B99F140
:100350008D3B49F1873B99F590936E0032C08E3DFD
:10036000B1F040F48B3D29F18D3DD9F0873D39F551
:100370008EE00EC08B3ED9F020F4873E01F58DE073
:1003800007C08D3E61F08E3ED1F481E001C082E075
:1003900080936E0016C083E0FBCF84E0F9CF85E048
:1003A000F7CF86E0F5CF87E0F3CF88E0F1CF89E0A3
:1003B000EFCF8AE0EDCF8BE0EBCF8CE0E9CF10926E
:1003C0006E0080916E000895FC0196B380818923B0
:1003D00021813281882319F02F5F3F4F02C02150C5
:1003E00031093283218308950E9449000E94CD0083
:1003F00080E690E00E94240188E690E00E94E401FB
:10040000FBCF97FB072E16F4009407D077FD09D099
:100410000E94150207FC05D03EF4909581959F4FF0
:100420000895709561957F4F0895AA1BBB1B51E1FC
:1004300007C0AA1FBB1FA617B70710F0A61BB70B54
:10044000881F991F5A95A9F780959095BC01CD01F9
:060450000895F894FFCFAF
:0804560050555348544F0000BB
:00000001FF
