:100000000C942A000C9447000C9447000C94470071
:100010000C9447000C9447000C9447000C94470044
:100020000C9447000C9447000C9447000C94470034
:100030000C9447000C9447000C9447000C94470024
:100040000C9447000C9447000C9447000C94470014
:100050000C94470011241FBECFE5D4E0DEBFCDBF16
:1000600010E0A0E6B0E0E0EDF3E002C005900D92F4
:10007000AE36B107D9F720E0AEE6B0E001C01D9280
:10008000A037B207E1F70E94B3010C94E6010C948B
:1000900000008FEF81BB17BA83E088BB089590986A
:1000A0009298919892B39F7092BB22B3982F907FB1
:1000B000922B92BB9198929A24EF31E0F9013197FB
:1000C000F1F7929892B39F7092BB92B38295807F22
:1000D000982B92BB929AC9010197F1F792980895D3
:1000E000909A9198929892B39F7092BB22B3982F56
:1000F000907F922B92BB9198929A24EF31E0F90174
:100100003197F1F7929892B39F7092BB92B3829518
:10011000807F982B92BB929AC9010197F1F7929830
:1001200008950F931F9390989298919882B380634B
:1001300082BB80E197E20197F1F7929A929882EE62
:1001400094E0FC013197F1F7929A92980197F1F7B8
:10015000929A929884EF91E00197F1F782B38072BE
:1001600082BB929A929888E20E944F0004ED10E3BD
:10017000C8010197F1F78EE00E944F00C801019776
:10018000F1F781E00E944F00C8010197F1F786E086
:100190000E944F00C8010197F1F780E80E944F00CC
:1001A000C8010197F1F71F910F910895CF93DF9345
:1001B000EC0103C00E947000219688818823D1F74A
:1001C000DF91CF910895883228F4611180648068AE
:1001D0000E944F000895EF92FF920F931F937C01AE
:1001E00068EE73E00E94BE01062F862F805D0E949C
:1001F0007000C701019710E028E13CEFA901049FBE
:100200009001059F300D149F300D1124820F931F14
:1002100064E670E00E94BE01862F805D0E9470003F
:10022000C70164E670E00E94BE016AE070E00E94CF
:10023000BE01862F805D0E947000C7016AE070E0F9
:100240000E94BE01805D0E9470001F910F91FF907F
:10025000EF90089510926F0080EF8ABB9FE09BBBE8
:10026000EFE4F3EC3197F1F700C0000029B32093DD
:100270006F009ABB8BBBEFE4F3EC3197F1F700C052
:10028000000029B380916F00822B80936F008E3B1A
:1002900089F1A0F48E3781F140F48B37E9F18D3785
:1002A00099F18737D9F580E122C08B3B99F18D3BDD
:1002B00049F1873B99F590936E0032C08E3DB1F0C5
:1002C00040F48B3D29F18D3DD9F0873D39F58EE025
:1002D0000EC08B3ED9F020F4873E01F58DE007C0BB
:1002E0008D3E61F08E3ED1F481E001C082E08093CA
:1002F0006E0016C083E0FBCF84E0F9CF85E0F7CF36
:1003000086E0F5CF87E0F3CF88E0F1CF89E0EFCF4B
:100310008AE0EDCF8BE0EBCF8CE0E9CF10926E005E
:1003200080916E00089561E070E080E090E00E94AE
:10033000E30087E690E00E94D600B09B03C081E016
:1003400090E002C080E090E00E94EB008AE690E03E
:100350000E94D600B19B03C081E090E002C080E023
:1003600090E00C94EB000E9449000E94910080E60E
:1003700090E00E94D6000E949301FDCF97FB072ECC
:1003800016F4009407D077FD09D00E94D20107FC33
:1003900005D03EF4909581959F4F08957095619595
:1003A0007F4F0895AA1BBB1B51E107C0AA1FBB1FAB
:1003B000A617B70710F0A61BB70B881F991F5A95F1
:1003C000A9F780959095BC01CD010895F894FFCFD1
:0E03D0006B657970616400413D0020423D0084
:00000001FF
