:100000000C9474000C9413010C9439010C9491001D
:100010000C9491000C9491000C94D8000C949100D5
:100020000C9491000C9491000C9491000C9491000C
:100030000C9491000C9491000C9491000C949100FC
:100040000C9491000C9491000C9491000C949100EC
:100050000C949100036EDB363D9A9999993DABAAB9
:10006000AA2A3E000000803F084AD73B3BCE016EE3
:1000700084BCBFFDC12F3D6C74319ABD56833DDAFF
:100080003D00C77F11BED9E4BB4C3E916BAAAABE0E
:10009000000000803F072C7AA5BA6CC590DA3B932C
:1000A00065FC8BBC53F810FD3C5692834DBD879D7B
:1000B0003AB63DCBC9BF5BBE73DA0FC93F05A84C4A
:1000C000CDB2D44EB93836A9020C50B99186880801
:1000D0003CA6AAAA2ABE000000803F006364696EA5
:1000E0006F70737578585B0011241FBECFE5D4E0A4
:1000F000DEBFCDBF11E0A0E6B0E0EAEEFEE102C057
:1001000005900D92A631B107D9F721E0A6E1B1E043
:1001100001C01D92A535B207E1F70E94E2070C94D9
:10012000730F0C94000085B7856085BF8BB7806C1A
:100130008BBF8FEF8ABB11BA9FE092BBABE2B1E0FD
:1001400094E09C9391E011969C93119713961C92C6
:100150001E921297EDE4F1E098E0908392E0918393
:100160001382128240E050E061EE73E414964D93E6
:100170005D936D937C931797448355836683778350
:10018000E6E1F1E0138A128A148A81831092380121
:10019000109237018FB58FBD8EB58B608EBD8DEB04
:1001A00099E79BBD8ABD89B7806189BF789408951E
:1001B0001F920F920FB60F9211242F933F934F93DC
:1001C0005F936F937F938F939F93AF93BF93CF93DF
:1001D000DF93EF93FF93C3E3D1E025E53CE342EAED
:1001E00056E3688179818A819B810E944D086883EA
:1001F00079838A839B838C819D8101969D838C83E7
:10020000FF91EF91DF91CF91BF91AF919F918F912E
:100210007F916F915F914F913F912F910F900FBE02
:100220000F901F9018951F920F920FB60F921124E6
:100230002F933F934F935F936F937F938F939F93EE
:10024000AF93BF93EF93FF938BE291E00E94B707C8
:10025000FF91EF91BF91AF919F918F917F916F919E
:100260005F914F913F912F910F900FBE0F901F9074
:1002700018951F920F920FB60F9211242F933F9350
:100280004F935F936F937F938F939F93AF93BF939E
:10029000EF93FF938DE491E00E94B707FF91EF91F8
:1002A000BF91AF919F918F917F916F915F914F918E
:1002B0003F912F910F900FBE0F901F901895D898D7
:1002C000DA98D9989BB39F709BBB9BB3282F207F54
:1002D000922B9BBBD998DA9AE3EFF1E03197F1F7D3
:1002E00000C00000DA989BB39F709BBB2BB3F0E17A
:1002F0008F9FC0011124822B8BBBDA9A83EF91E090
:100300000197F1F700C00000DA980895D89AD998BB
:10031000DA989BB39F709BBB9BB3282F207F922BB7
:100320009BBBD998DA9AE3EFF1E03197F1F700C07F
:100330000000DA989BB39F709BBB2BB3F0E18F9FBB
:10034000C0011124822B8BBBDA9A83EF91E00197D5
:10035000F1F700C00000DA980895D898DA98D99893
:100360008BB380638BBB8FE097E20197F1F700C0FE
:100370000000DA9ADA9881EE94E00197F1F700C074
:100380000000DA9ADA9881EE94E00197F1F700C064
:100390000000DA9ADA9883EF91E00197F1F700C054
:1003A00000008BB380728BBBDA9ADA9888E20E94E5
:1003B0005F0183ED90E30197F1F700C000008EE04C
:1003C0000E945F0183ED90E30197F1F700C0000008
:1003D00081E00E945F0183ED90E30197F1F700C097
:1003E000000086E00E945F0183ED90E30197F1F742
:1003F00000C0000080E80E945F0183ED90E3019758
:10040000F1F700C000000895CF93DF93EC018991CC
:10041000882319F00E948601FACFDF91CF910895C9
:10042000883228F46111806480680C945F0108951B
:10043000EF92FF920F931F93CF93DF931F92CDB74D
:10044000DEB77C0197FD32C08BE20E948601C701B6
:1004500068EE73E00E94DF0B8B0180E3860F0E9441
:10046000860128E13CEF029FC001039F900D129F7F
:10047000900D11248E0D9F1D019704E610E0B80128
:100480000E94DF0B80E3860F0E948601C701B8013E
:100490000E94DF0B0AE010E0B8010E94DF0B80E34E
:1004A000860F0E948601C701B80137C08DE20E9405
:1004B0008601002711270E191F09C80168EE73E095
:1004C0000E94DF0B80E3860F69830E94860188E12A
:1004D0009CEF6981689F9001699F300D11242E194E
:1004E0003F09C901019724E6E22EF12CB7010E94D1
:1004F000DF0B80E3860F0E948601C801B7010E94CE
:10050000DF0B3AE0E32EF12CB7010E94DF0B80E312
:10051000860F0E948601C801B7010E94DF0B805D33
:100520000F90DF91CF911F910F91FF90EF900C945E
:10053000860181E00C945F01FC01108280EF84BB96
:100540009FE095BBA7E8B3E11197F1F700C0000069
:1005500023B3208394BB85BB87E893E10197F1F730
:1005600000C0000083B39081982B90838181981301
:1005700003C08FEF808308959183892F0895E8E168
:10058000F1E0119281E0E832F807D9F710922901E1
:10059000109228010895CF93DF93FC018081873D5D
:1005A00009F4C4C058F5873B09F46CC098F48B3744
:1005B00009F451C08D3709F44BC0873709F0C1C029
:1005C000EF010E94BF029C89937F90619C8B1B8AE4
:1005D0001A8AB7C08D3B09F49EC08E3B09F47AC0DD
:1005E0008B3B09F0AEC0828993899C012F5F3F4FFE
:1005F000338B228BE80FF91F89E3A2C0873E79F184
:10060000A0F48D3D09F47CC08E3D09F458C08B3DAB
:1006100009F097C0828993899C012F5F3F4F338BEC
:10062000228BE80FF91F88E38BC08D3E09F45DC073
:100630008E3ED1F18B3E09F084C0828993899C0162
:100640002F5F3F4F338B228BE80FF91F87E378C072
:100650008489806402C084898062848B72C08489AA
:10066000982F9C7069F422893389A9014F5F5F4FED
:10067000538B428BDF01A20FB31F98E412969C9319
:100680008860EBCF848982FD0DC022893389A9015E
:100690004F5F5F4F538B428BDF01A20FB31F9DE46F
:1006A00012969C938460D9CF828993899C012F5F95
:1006B0003F4F338B228BE80FF91F81E341C08289C2
:1006C00093899C012F5F3F4F338B228BE80FF91FDB
:1006D00082E336C0828993899C012F5F3F4F338B21
:1006E000228BE80FF91F83E32BC0828993899C0139
:1006F0002F5F3F4F338B228BE80FF91F84E320C01D
:10070000828993899C012F5F3F4F338B228BE80FA7
:10071000F91F85E315C0828993899C012F5F3F4FA4
:10072000338B228BE80FF91F86E30AC082899389F5
:100730009C012F5F3F4F338B228BE80FF91F80E323
:100740008283DF91CF9108954F925F926F927F9253
:100750008F929F92AF92BF92CF92DF92EF92FF92D1
:100760000F931F93CF93DF937C018B01EA0160E02D
:1007700080E00E94100280E690E00E94040286E180
:1007800091E00E949C028B37D1F780E790E0F7015F
:100790009383828360E080E00E9410028FE690E005
:1007A0000E94040286E191E00E949C028B37D1F7FF
:1007B000F80113821282F70162817381072E000C07
:1007C000880B990B0E9481099B01AC010E944D0886
:1007D0002BED3FE049E450E40E940B0B20E030E0B9
:1007E00041EE53E40E940D096E8B7F8B888F998FA9
:1007F00060E080E00E94100280E890E00E94040225
:1008000086E191E00E949C028B37D1F7F70162816B
:100810007381072E000C880B990B0E94810920E040
:1008200030E041EE53E40E940D099B01AC010E94AF
:100830004D082BED3FE049E450E40E940B0B0E9471
:10084000780B4B015C01CE88DF88E88CF98CC701FE
:10085000B6010E94780B2B013C01C701B6010E9432
:1008600008096B017C0127E135E142E45FE3C30144
:10087000B2010E940B0B9B01AC01C501B4010E94A7
:100880004C084B015C012CEE3FEE46E25FE3C701F2
:10089000B6010E940B0B9B01AC01C501B4010E9483
:1008A0000D090E943B086B017C01F8016281738194
:1008B000072E000C880B990B0E9481099B01AC014B
:1008C0000E944D082BED3FE049E450E40E940B0BE1
:1008D00020E030E041EE53E40E940D092BED3FE0B3
:1008E00049E450E40E940309181654F02BED3FE050
:1008F00049E450E4C701B6010E944D086B017C0138
:1009000022EC3EE547E650E4C701B6010E944D08DF
:10091000688379838A839B83DF91CF911F910F91A5
:10092000FF90EF90DF90CF90BF90AF909F908F900F
:100930007F906F905F904F900C9499022F923F920E
:100940004F925F926F927F928F929F92AF92BF92DF
:10095000CF92DF92EF92FF920F931F93CF93DF938B
:1009600000D000D000D0CDB7DEB78C011B011E82B5
:100970001D821C821B821A8219820E94BF0260E0C3
:1009800080E00E94100281E990E00E94040261E090
:1009900080E00E94100282EA90E00E940402C801F6
:1009A0000E949C028D37D9F760E080E00E9410021F
:1009B00083EB90E00E94040261E080E00E9410025C
:1009C00084EC90E00E940402C8010E949C028D37D2
:1009D000D9F70E94990260E080E00E94100285ED44
:1009E00090E00E940402C80102967C01C8010E94A6
:1009F0009C028D3759F061E080E00E941002C8012E
:100A00000E94CB02C7010E940402F0CFFE01319682
:100A10004F01FF93EF935E01F3E0AF0EB11CBF9265
:100A2000AF926E0185E0C80ED11CDF92CF9286EEA8
:100A300090E09F938F93FF92EF920E94070C8D811D
:100A40009E812FE0289FB001299F700D1124072E51
:100A5000000C880B990B0E9481092B013C016B81D2
:100A60007C81072E000C880B990B0E94810920E0E5
:100A700030E040E85EE30E940B0B9B01AC01C30138
:100A8000B2010E944D082B013C0169817A81072E39
:100A9000000C880B990B0E94810929E838E848E886
:100AA0005BE30E940B0B9B01AC01C301B2010E94EE
:100AB0004D0825E33AEF4EE85CE30E940B0BF10191
:100AC00062877387848795870E94BF020E9499027C
:100AD0001E821D821C821B821A821982F80184895F
:100AE000837F848B60E080E00E9410028FEE90E0B4
:100AF0000E9404020FB6F894DEBF0FBECDBFC8013E
:100B00000E949C028D3759F061E080E00E94100243
:100B1000C8010E94CB02C7010E940402F0CF9F923D
:100B20008F92BF92AF92DF92CF9286EE90E09F932A
:100B30008F93FF92EF920E94070C6D817E81072EAA
:100B4000000C880B990B0E9481096B017C018B8141
:100B50009C81BC01990F880B990B0E94810920E0B0
:100B600030E040E752E40E940D099B01AC01C7014F
:100B7000B6010E944D086B017C0189819A81BC01FC
:100B8000990F880B990B0E94810920E030E041E623
:100B900055E40E940D099B01AC01C701B6010E94FA
:100BA0004D0825E33AEF4EE85CE30E940B0BF101A0
:100BB00066837783808791870E94BF020E94990293
:100BC000F801148A0FB6F894DEBF0FBECDBF26968B
:100BD0000FB6F894DEBF0FBECDBFDF91CF911F914E
:100BE0000F91FF90EF90DF90CF90BF90AF909F90CC
:100BF0008F907F906F905F904F903F902F900895CF
:100C00004F925F926F927F928F929F92AF92BF921C
:100C1000CF92DF92EF92FF920F931F93CF93DF93C8
:100C2000CDB7DEB764970FB6F894DEBF0FBECDBF69
:100C30008C01FC0122853385448555856081718155
:100C4000828193810E944C0869837A838B839C8381
:100C5000F80186809780A084B184C501B4010E9408
:100C6000780B2B013C01F801C688D788E08CF18C09
:100C7000C701B6010E94780B6D837E838F839887AE
:100C8000C501B4010E9408094B015C01C701B6010E
:100C90000E94080969877A878B879C8769817A8196
:100CA0008B819C810E9408096D877E878F87988B36
:100CB0002D813E814F815885C301B2010E940B0BEB
:100CC0006B017C0129853A854B855C85C501B401A2
:100CD0000E940B0B2D853E854F8558890E940B0B7A
:100CE0009B01AC01C701B6010E944D080E94B908E2
:100CF0006B017C01F80166877787808B918B698116
:100D00007A818B819C810E94780B9B01AC01C5018B
:100D1000B4010E940B0B698B7A8B8B8B9C8BC3016C
:100D2000B201905829853A854B855C850E940B0B52
:100D30002B013C012D813E814F815885C501B401B5
:100D40000E940B0B2D853E854F8558890E940B0B09
:100D50009B01AC01C301B2010E944D089B01AC0193
:100D600069897A898B899C890E940D090E94D4081F
:100D70004B015C012BED3FE049EC5FE369817A8137
:100D80008B819C810E94030987FD12C024EE3BECFD
:100D900046E950E469817A818B819C810E94CB0A6B
:100DA000181634F0F801828A938AA48AB58A0DC095
:100DB0002BED3FE049E450E4C501B4010E944D0829
:100DC000F801628B738B848B958BF80182889388F2
:100DD000A488B58820E030E0A901C501B4010E94D3
:100DE000030918166CF02BED3FE049EC50E4C50107
:100DF000B4010E944D08F801628B738B848B958B34
:100E000020E030E041EE53E4C701B6010E940B0B35
:100E10002BED3FE049EC50E40E940D09F801668794
:100E20007787808B918B20E030E041EE53E462893C
:100E30007389848995890E940B0B2BED3FE049EC67
:100E400050E40E940D09F801628B738B848B958BA3
:100E500064960FB6F894DEBF0FBECDBFDF91CF9181
:100E60001F910F91FF90EF90DF90CF90BF90AF90C8
:100E70009F908F907F906F905F904F9008958F928A
:100E80009F92AF92BF92CF92DF92EF92FF92CF9359
:100E9000DF934C01EB015A0120E030E041EE53E4D6
:100EA000F50166857785808991890E940B0B2BED72
:100EB0003FE049EC50E40E940D096B017C01F40114
:100EC00082819381BC01990F880B990B0E94810943
:100ED0009B01AC01C701B6010E944C080E94D80AD0
:100EE0006B017C0120E030E041EE53E4F5016289C2
:100EF0007389848995890E940B0B2BED3FE049ECA7
:100F000050E40E940D094B015C014A815B81BA01EA
:100F1000550F880B990B0E9481099B01AC01C501FB
:100F2000B4010E944C080E94D80A4B015C0160E0A9
:100F300080E00E94100280E091E00E940402C6015D
:100F40000E94180261E080E00E9410028BE091E0B4
:100F50000E940402C401DF91CF91FF90EF90DF90D7
:100F6000CF90BF90AF909F908F900C941802CF932A
:100F7000DF93EC0130B38881382329818A819B81FA
:100F8000332329F030B3232329F0019704C030B371
:100F90002323D9F301969B838A836A817B81072E61
:100FA000000C880B990B0E9481092C813D814E8198
:100FB0005F810E94CB0A87FD02C01B821A82DF91EB
:100FC000CF9108950E9493000E94AD0186E191E0C7
:100FD0000E949C0286E191E00E94CB0280912A014E
:100FE00086FF0BC063E371E086E191E00E949E04FE
:100FF00080912A018F7B80932A0180912A0185FFAD
:101000000DC043E351E06DE471E08BE291E00E949A
:10101000A40380912A018F7D80932A0180912A0167
:1010200084FF07C00E94990280912A018F7E8093DD
:101030002A0180913701909138010A9741F483E3A6
:1010400091E00E940006109238011092370143E3AC
:1010500051E06DE471E08BE291E00E943F078091E6
:101060002801909129010F970CF4B0CF109229011B
:1010700010922801ABCF9F939F770E94BC090F90DD
:10108000002042F49058A2EA2AED3FE049E450E4FF
:101090000E9464080C947D0A5058BB27AA270E941E
:1010A00064080C947D0A0E94440A38F00E944B0A9E
:1010B00020F039F49F3F19F426F40C94060A0EF43C
:1010C000E095E7FB0C94000AE92F0E94A20A58F36E
:1010D000BA17620773078407950720F079F4A6F51D
:1010E0000C94C40A0EF4E0950B2EBA2FA02D0B0120
:1010F000B90190010C01CA01A0011124FF27591B5D
:1011000099F0593F50F4503E68F11A16F040A22F62
:10111000232F342F4427585FF3CF469537952795D3
:10112000A795F0405395C9F77EF41F16BA0B620BD2
:10113000730B840BBAF09150A1F0FF0FBB1F661F19
:10114000771F881FC2F70EC0BA0F621F731F841F5C
:1011500048F4879577956795B795F7959E3F08F082
:10116000B0CF9395880F08F09927EE0F9795879544
:1011700008959F939F77EEE389379E0728F4E4E56F
:10118000F0E00E94300A0CC00E94BC099058A2EA0C
:101190002AED3FE049EC5FE30E9464080E947D0A6B
:1011A0000F9007FC90580895DF93DD27B92FBF7784
:1011B00040E85FE31616170648075B0718F4D92FB7
:1011C0000E94D00A9F938F937F936F930E94C60BC8
:1011D000E8E6F0E00E94090A0E947D0A2F913F9103
:1011E0004F915F910E941E0BDD2351F09058A2EAAF
:1011F0002AED3FE049EC5FE3D0785D270E94640868
:10120000DF910C947D0A0E94DC0908F481E00895C6
:101210000E94540AE3950C948E0A0E9421090C94B2
:101220007D0A0E944B0A58F00E94440A40F029F4BB
:101230005F3F29F00C94000A51110C94C50A0C94DC
:10124000060A0E94A20A68F39923B1F3552391F389
:10125000951B550BBB27AA2762177307840738F025
:101260009F5F5F4F220F331F441FAA1FA9F335D082
:101270000E2E3AF0E0E832D091505040E695001C36
:10128000CAF72BD0FE2F29D0660F771F881FBB1FF0
:10129000261737074807AB07B0E809F0BB0B802DCE
:1012A000BF01FF2793585F4F3AF09E3F510578F0FA
:1012B0000C94000A0C94C50A5F3FE4F3983ED4F303
:1012C000869577956795B795F7959F5FC9F7880FCE
:1012D000911D9695879597F90895E1E0660F771F20
:1012E000881FBB1F621773078407BA0720F0621BB1
:1012F000730B840BBA0BEE1F88F7E0950895E89402
:1013000009C097FB3EF490958095709561957F4F4D
:101310008F4F9F4F9923A9F0F92F96E9BB279395FB
:10132000F695879577956795B795F111F8CFFAF40B
:10133000BB0F11F460FF1BC06F5F7F4F8F4F9F4F3C
:1013400016C0882311F096E911C0772321F09EE89A
:10135000872F762F05C0662371F096E8862F70E000
:1013600060E02AF09A95660F771F881FDAF7880FDA
:101370009695879597F90895DF93CF931F930F93D1
:101380008B01EC01E5E9F0E00E94090A0E947D0A68
:101390009801AE018B01EC0160E070E080E89FE312
:1013A0000E944C080E94860B9801AE010F911F917C
:1013B000CF91DF910C941E0B990F0008550FAA0BCB
:1013C000E0E8FEEF16161706E807F907C0F0121658
:1013D0001306E407F50798F0621B730B840B950B5B
:1013E00039F40A2661F0232B242B252B21F40895B0
:1013F0000A2609F4A140A6958FEF811D811D08954D
:1014000097F99F6780E870E060E008959FEF80ECB7
:101410000895DF93CF931F930F93FF92EF92DF9284
:101420007B018C01689406C0DA2EEF010E941E0B2E
:10143000FE01E894A5912591359145915591A6F32A
:10144000EF010E946408FE019701A801DA9469F790
:10145000DF90EF90FF900F911F91CF91DF91089552
:101460009F938F937F936F93FF93EF939B01AC01B7
:101470000E940B0BEF91FF910E94090A2F913F915F
:101480004F915F910C940B0B00240A9416161706CB
:1014900018060906089500240A9412161306140665
:1014A000050608950C94060A0E94AA0AD8F3E89447
:1014B000E0E0BB279F57F0F02AED3FE049EC06C083
:1014C000EE0FBB0F661F771F881F28F0B23A620726
:1014D0007307840728F0B25A620B730B840BE395F1
:1014E0009A9572F7803830F49A95BB0F661F771F74
:1014F000881FD2F790480C94CC0B092E0394000C53
:1015000011F4882352F0BB0F40F4BF2B11F460FF9D
:1015100004C06F5F7F4F8F4F9F4F0895EF93E0FFA1
:1015200007C0A2EA2AED3FE049EC5FEB0E946408A5
:101530000E947D0A0F90039401FC9058EDEBF0E0BF
:101540000C94300A57FD9058440F551F59F05F3FD7
:1015500071F04795880F97FB991F61F09F3F79F0D5
:1015600087950895121613061406551FF2CF469557
:10157000F1DF08C0161617061806991FF1CF8695D9
:101580007105610508940895E894BB2766277727BD
:10159000CB0197F908950E94DC0908F48FEF0895B4
:1015A0009B01AC0160E070E080E89FE30C940D09C2
:1015B0000E94AA0A58F19E5760F19851A0F0E9F0F4
:1015C000983020F5092E9927660F771F881F991FDD
:1015D0000A94D1F712C0062E672F782F8827985FBC
:1015E00011F4000C07C0993FB4F386957795679581
:1015F0009395D9F7611D711D811D3EF490958095DD
:10160000709561957F4F8F4F9F4F089568940C940C
:10161000C50A0C94C40A0E941E0B0C947D0A0E94F9
:10162000440A38F00E944B0A20F0952311F00C94E4
:10163000000A0C94060A11240C94C50A0E94A20AFE
:1016400070F3959FC1F3950F50E0551F629FF00115
:10165000729FBB27F00DB11D639FAA27F00DB11D2E
:10166000AA1F649F6627B00DA11D661F829F2227B7
:10167000B00DA11D621F739FB00DA11D621F839F3E
:10168000A00D611D221F749F3327A00D611D231F14
:10169000849F600D211D822F762F6A2F11249F5762
:1016A00050409AF0F1F088234AF0EE0FFF1FBB1F65
:1016B000661F771F881F91505040A9F79E3F510524
:1016C00080F00C94000A0C94C50A5F3FE4F3983E46
:1016D000D4F3869577956795B795F795E7959F5FCE
:1016E000C1F7FE2B880F911D9695879597F9089560
:1016F0009F930E94540A0F9007FCEE5F0C948E0A91
:1017000019F416F40C94060A0C94CA0B0E94AA0A47
:10171000B8F39923C9F3B6F39F57550B87FF0E947F
:10172000D80B0024A0E640EA900180585695979582
:1017300028F4805C660F771F881F20F02617370774
:10174000480730F4621B730B840B202931294A2B84
:10175000A69517940794202531254A2758F7660F38
:10176000771F881F20F026173707480730F4620BD1
:10177000730B840B200D311D411DA09581F7B9011C
:10178000842F9158880F9695879508959B01AC01F9
:101790000C940B0B9F3F31F0915020F48795779577
:1017A0006795B795880F911D9695879597F9089538
:1017B00091505040660F771F881FD2F7089597FB0E
:1017C000072E16F4009407D077FD09D00E94F30B82
:1017D00007FC05D03EF4909581959F4F0895709534
:1017E00061957F4F0895AA1BBB1B51E107C0AA1F3B
:1017F000BB1FA617B70710F0A61BB70B881F991FB2
:101800005A95A9F780959095BC01CD010895AEE059
:10181000B0E0EDE0FCE00C944C0F85E08C838B890C
:101820009C899A838983AE01495E5F4F6D897E8969
:10183000CE0101960E94A00D2E96E2E00C94680F56
:1018400020FD09C0FC0123FD05C022FF02C07383F7
:10185000628351834083089544FD10C046FD10C04B
:10186000DB01FC01AA0FBB1FEE1FFF1F1094D1F775
:101870006A0F7B1F8E1F9F1F31E003C033E001C042
:1018800034E0660F771F881F991F3150D1F7620F20
:10189000711D811D911D08950F931F93CF93DF93A9
:1018A0008C01C8010E94E20EEC0197FD08C00E9465
:1018B000CE0E892BB1F7B801CE010E94200FCE01C8
:1018C000DF91CF911F910F910895A1E0B0E0EBE679
:1018D000FCE00C94420F8C01C62E7A0129830E94F1
:1018E000E20EAC01552729814B32510521F04D32D2
:1018F000510569F42068CA94C11002C080E076C026
:10190000C80129830E94E20E298197FDF7CF322F6B
:101910003D7FD32E322F307349F5803339F5BB2408
:10192000BA94BC0C09F44EC0C80129830E94E20E8F
:10193000298197FD47C0382F3F7D383569F48D2DBB
:101940008264D82ECA94CA94CC20E1F1C8010E94C6
:10195000E20E97FF0BC036C026FF04C02D2D22607B
:10196000D22E03C03D2D3261D32ECB2C812C912C55
:10197000540120ED280F283080F0D4FE04C0B801B7
:101980000E94200F1CC02A3040F0D6FEF8CF2F7DD9
:101990003FEE320F363098F727504D2DC501B40178
:1019A0000E942C0C4B015C018D2D8260D82ECA94B4
:1019B000CC2059F0C8010E94E20E97FFDACFD1FC8B
:1019C00004C09CCF812C912C5401D7FE08C0B09448
:1019D000A09490948094811C911CA11CB11C2D2D6D
:1019E000B501A401C7010E94200C81E02196ECE022
:1019F0000C945E0FA1E2B0E0E0E0FDE00C94400F3B
:101A00005C017A01CE0101966C0180E2F60111922F
:101A10008A95E9F7F501838040E050E0912C712C24
:101A200070E0A1E0B0E0F90183FC859183FE819133
:101A30008F01982F9F01811103C080E090E07CC04E
:101A40008E3519F44115510549F1E72FF0E0E417FF
:101A5000F5073CF48D3559F18D3219F4772001F1F9
:101A600003C0711001C0982E892F869586958695A2
:101A70008601080F111D892F87703D0101C0660C7A
:101A80008A95EAF7F801808186298083991559F0B3
:101A9000991510F49F5FE8CF9150E6CF71E004C034
:101AA0007724739401C0712C4F5F5F4FBCCF7720B8
:101AB00019F08E8180628E83711103C099249394F2
:101AC00016C0F6019E012F5D3F4F80818095819366
:101AD000E217F307D1F7F2CFE114F10429F0F7018F
:101AE0008083C70101967C016150912CF9F0C501FA
:101AF00069A30E94E20E69A197FD16C0282F2695C2
:101B000026952695F601E20FF11D208130E0AC010B
:101B10004770552702C0359527954A95E2F720FD75
:101B2000DBCFB5010E94200F911087CFE114F104A3
:101B300011F0F7011082C801A196EEE00C945C0F41
:101B40004F925F927F928F929F92AF92BF92CF926D
:101B5000DF92EF92FF920F931F93CF93DF931F9229
:101B6000CDB7DEB76C012B015A01FC01178216823A
:101B7000712CF601F380F201F3FC8591F3FE819163
:101B8000382F2F01882309F4F3C090E039830E9495
:101B9000CE0E3981892B21F0C6010E944C0CE9CF71
:101BA000353241F4F201F3FC3591F3FE31912F010E
:101BB000353269F4C60139830E94E20E398197FDFE
:101BC000D5C03817B1F2B6010E94200FD1C03A3209
:101BD00039F4F3FC3591F3FE31912F0151E001C04E
:101BE00050E0420110E020ED230F2A3090F45260C3
:101BF000612F70E080E090E040E259830E942C0C5D
:101C0000162FF401F3FC3591F3FE31914F01598108
:101C1000EACF052F232F240151FF03C0111102C069
:101C2000A7C01FEF383619F03C3659F011C0F40147
:101C3000F3FC2591F3FE21912F01283649F4052F5D
:101C400008600460F201F3FC2591F3FE21912F015D
:101C5000222309F48DC0622F70E08CED90E029837F
:101C60000E94D70E2981892B09F482C000FD07C08C
:101C7000F501E080F180C50102965C0102C0E12C13
:101C8000F12C2E3651F4F6014681578160E070E068
:101C9000202FC7010E94200C6CCF233691F401FF46
:101CA00011E0C6010E94E20E97FD60C0E114F1044C
:101CB00029F0F7018083C70101967C01115089F753
:101CC00051C02B3559F49201A701612FC6010E9422
:101CD000FA0C2C01892B09F045C03FC0C6012983AD
:101CE0000E944C0C298197FD41C02F3659F128F4F0
:101CF000243631F1293649F127C0233769F02537D9
:101D0000F9F022C0E114F10429F0F7018082C70143
:101D100001967C01115071F0C6010E94E20E4C0147
:101D200097FD08C00E94CE0E892B61F3B601C40155
:101D30000E94200FE114F104A9F0F701108212C0F3
:101D4000006203C0006101C00064202FA701612F61
:101D5000C6010E94650C811105C0F6018381807364
:101D600029F406C000FD05CF739403CF772019F046
:101D7000872D90E002C08FEF9FEF0F90DF91CF9102
:101D80001F910F91FF90EF90DF90CF90BF90AF9099
:101D90009F908F907F905F904F90089591110C9439
:101DA000390F803219F089508550C8F70895FC0129
:101DB0000590061621F00020D9F7C001089531974B
:101DC000CF010895CF93DF93EC012B8120FF33C027
:101DD00026FF0AC02F7B2B838E819F8101969F83D4
:101DE0008E838A8190E029C022FF0FC0E881F981AB
:101DF0008081082E000C990B009719F420622B8328
:101E00001AC03196F983E8830EC0EA85FB850995EF
:101E100097FF09C02B81019611F080E201C080E19B
:101E2000822B8B8308C02E813F812F5F3F4F3F83E2
:101E30002E83992702C08FEF9FEFDF91CF910895F6
:101E4000FB01238120FF12C026FD10C08F3F3FEF12
:101E5000930761F082832F7D20642383268137815D
:101E60002150310937832683992708958FEF9FEFFB
:101E700008959927882708952F923F924F925F9255
:101E80006F927F928F929F92AF92BF92CF92DF928A
:101E9000EF92FF920F931F93CF93DF93CDB7DEB7EF
:101EA000CA1BDB0B0FB6F894DEBF0FBECDBF099483
:101EB0002A88398848885F846E847D848C849B84DA
:101EC000AA84B984C884DF80EE80FD800C811B81E8
:101ED000AA81B981CE0FD11D0FB6F894DEBF0FBE17
:0A1EE000CDBFED010895F894FFCF87
:101EEA00476F746F207A656E69742D3E20430047F0
:101EFA006F746F20706F6C617269732D3E2043009E
:101F0A00476F746F20616C6B616964202D3E2043BA
:101F1A0000706F64616A2064656B6C2069205241AD
:101F2A002000666F726D6174207848794D7A202D91
:101F3A003E42006F7A6E61637A656E69613A20206B
:101F4A002020200048282A29204D28232920202023
:101F5A00202D3E4200706F64616A20524120202089
:101F6A0020202D3E420025694825694D25690064D7
:101F7A00656B6C204820746F207374202D3E4200DC
:101F8A005779736F6B6F73633A20004F62726F7485
:061F9A003A202020200087
:00000001FF
