:100000000C942A000C9483000C94A9000C944700D3
:100010000C9447000C9447000C9479000C94470012
:100020000C9447000C9447000C9447000C94470034
:100030000C9447000C9447000C9447000C94470024
:100040000C9447000C9447000C9447000C94470014
:100050000C94470011241FBECFE5D4E0DEBFCDBF16
:1000600010E0A0E6B0E0ECEDF5E002C005900D92E6
:10007000A037B107D9F720E0A0E7B0E001C01D929A
:10008000AC38B207E1F70E9498020C94EC020C9491
:10009000000085B7856085BF8BB7806C8BBF8FEF05
:1000A0008ABB11BA9FE092BBE4E8F0E094E0908351
:1000B00091E0918313821282E8E8F0E098E0908367
:1000C00092E0918313821282E0E7F0E0128A118AB3
:1000D000138A9FB59FBD9EB59B609EBD22E13AE706
:1000E0003BBD2ABD99B7906199BF789484BB85BB0D
:1000F00008951F920F920FB60F9211240F900FBE0A
:100100000F901F9018951F920F920FB60F92112407
:100110002F933F934F935F936F937F938F939F930F
:10012000AF93BF93EF93FF9384E890E00E94810226
:10013000FF91EF91BF91AF919F918F917F916F91BF
:100140005F914F913F912F910F900FBE0F901F9095
:1001500018951F920F920FB60F9211242F933F9371
:100160004F935F936F937F938F939F93AF93BF93BF
:10017000EF93FF9388E890E00E948102FF91EF9156
:10018000BF91AF919F918F917F916F915F914F91AF
:100190003F912F910F900FBE0F901F901895D898F8
:1001A000DA98D9989BB39F709BBB9BB3282F207F75
:1001B000922B9BBBD998DA9AE3EFF1E03197F1F7F4
:1001C00000C00000DA989BB39F709BBB2BB3F0E19B
:1001D0008F9FC0011124822B8BBBDA9A83EF91E0B1
:1001E0000197F1F700C00000DA980895D89AD998DD
:1001F000DA989BB39F709BBB9BB3282F207F922BD9
:100200009BBBD998DA9AE3EFF1E03197F1F700C0A0
:100210000000DA989BB39F709BBB2BB3F0E18F9FDC
:10022000C0011124822B8BBBDA9A83EF91E00197F6
:10023000F1F700C00000DA980895D898DA98D998B4
:100240008BB380638BBB8FE097E20197F1F700C01F
:100250000000DA9ADA9881EE94E00197F1F700C095
:100260000000DA9ADA9881EE94E00197F1F700C085
:100270000000DA9ADA9883EF91E00197F1F700C075
:1002800000008BB380728BBBDA9ADA9888E20E9406
:10029000CF0083ED90E30197F1F700C000008EE0FE
:1002A0000E94CF0083ED90E30197F1F700C00000BA
:1002B00081E00E94CF0083ED90E30197F1F700C049
:1002C000000086E00E94CF0083ED90E30197F1F7F4
:1002D00000C0000080E80E94CF0083ED90E301970A
:1002E000F1F700C000000895CF93DF93EC018991EE
:1002F000882319F00E94F600FACFDF91CF9108957C
:10030000883228F46111806480680C94CF000895CD
:10031000EF92FF920F931F93CF93DF931F92CDB76E
:10032000DEB77C0168EE73E00E94C40280E3860FB2
:1003300069830E94F60088E19CEF6981689F9001C3
:10034000699F300D11242E0D3F1DC901019704E650
:1003500010E0B8010E94C40280E3860F0E94F600FC
:10036000C701B8010E94C4020AE010E0B8010E946F
:10037000C40280E3860F0E94F600C701B8010E9404
:10038000C402805D0F90DF91CF911F910F91FF907C
:10039000EF900C94F600FC01108280EF87BB9FE089
:1003A00098BBA7EAB1E61197F1F700C0000026B3A9
:1003B000208397BB88BB87EA91E60197F1F700C0DD
:1003C000000086B39081892B80830895FC01808191
:1003D000873D09F48AC0F8F4873B09F44FC060F404
:1003E0008B37E1F18D37B9F1873709F085C0DF012F
:1003F0001196CF0141964EC08D3B09F470C08E3BE3
:1004000009F45BC08B3B09F077C0A189B289AE0FBC
:10041000BF1F89E36FC0873E29F178F48D3D09F451
:1004200058C08E3D09F443C08B3D09F065C0A189D9
:10043000B289AE0FBF1F88E35DC08D3E09F443C093
:100440008E3E79F18B3E09F057C0A189B289AE0F7B
:10045000BF1F87E34FC08389806402C083898062A5
:10046000838B4AC0838983FD07C0A189B289AE0FFF
:10047000BF1F98E411969C938860F2CF838982FD18
:1004800007C0A189B289AE0FBF1F9DE411969C934E
:100490008460E6CF1D92A817B907E1F78389837FAF
:1004A000DFCFA189B289AE0FBF1F81E323C0A1892D
:1004B000B289AE0FBF1F82E31DC0A189B289AE0F02
:1004C000BF1F83E317C0A189B289AE0FBF1F84E3AA
:1004D00011C0A189B289AE0FBF1F85E30BC0A189EE
:1004E000B289AE0FBF1F86E305C0A189B289AE0FE6
:1004F000BF1F80E311968C93128A118A8FEF80833D
:100500000895FC0190B380818923918122813381F8
:10051000882331F080B3982331F02150310905C090
:1005200080B39823D1F32F5F3F4F33832283089505
:100530000E9449000E941D0180E690E00E94740123
:1005400060E080E00E94800187E690E00E947401F4
:1005500080918600909187000E9488018BE690E050
:100560000E94740180918A0090918B000E94880102
:1005700061E080E00E94800180E790E00E94CB0172
:1005800090E00E948801DCCF97FB072E16F40094C0
:1005900007D077FD09D00E94D80207FC05D03EF4B1
:1005A000909581959F4F0895709561957F4F08951F
:1005B000AA1BBB1B51E107C0AA1FBB1FA617B70789
:1005C00010F0A61BB70B881F991F5A95A9F78095A5
:0C05D0009095BC01CD010895F894FFCF78
:1005DC0050555348544F0045313D002045323D00A5
:00000001FF
