:100000000C9474000C94E2000C94EC000C9491009D
:100010000C9491000C9491000C94B5000C949100F8
:100020000C9491000C9491000C9491000C9491000C
:100030000C9491000C9491000C9491000C949100FC
:100040000C9491000C9491000C9491000C949100EC
:100050000C949100036EDB363D9A9999993DABAAB9
:10006000AA2A3E000000803F084AD73B3BCE016EE3
:1000700084BCBFFDC12F3D6C74319ABD56833DDAFF
:100080003D00C77F11BED9E4BB4C3E916BAAAABE0E
:10009000000000803F072C7AA5BA6CC590DA3B932C
:1000A00065FC8BBC53F810FD3C5692834DBD879D7B
:1000B0003AB63DCBC9BF5BBE73DA0FC93F05A84C4A
:1000C000CDB2D44EB93836A9020C50B99186880801
:1000D0003CA6AAAA2ABE000000803F006364696EA5
:1000E0006F70737578585B0011241FBECFE5D4E0A4
:1000F000DEBFCDBF11E0A0E6B0E0E6E6FCE102C065
:1001000005900D92A231B107D9F721E0A2E1B1E04B
:1001100001C01D92A734B207E1F70E94A9060C9412
:10012000310E0C94000085B7856085BF8BB7806C5D
:100130008BBF8FEF8ABBE2E1F1E0138A128A148A47
:10014000818310922E0110922D019FB59FBD9EB507
:100150009B609EBD22E13AE73BBD2ABD99B7906105
:1001600099BF789484BB85BB08951F920F920FB6F8
:100170000F9211245F936F937F938F939F93AF930D
:10018000BF9380912B0190912C01019690932C01AB
:1001900080932B016AE070E00E949D0A892B31F464
:1001A00081E090E090932E0180932D01BF91AF915B
:1001B0009F918F917F916F915F910F900FBE0F90E4
:1001C0001F9018951F920F920FB60F9211240F9047
:1001D0000FBE0F901F9018951F920F920FB60F929F
:1001E00011240F900FBE0F901F901895D898DA9891
:1001F000D9989BB39F709BBB9BB3282F207F922BDA
:100200009BBBD998DA9AE3EFF1E03197F1F700C0A0
:100210000000DA989BB39F709BBB2BB3F0E18F9FDC
:10022000C0011124822B8BBBDA9A83EF91E00197F6
:10023000F1F700C00000DA980895D89AD998DA98B2
:100240009BB39F709BBB9BB3282F207F922B9BBBA4
:10025000D998DA9AE3EFF1E03197F1F700C00000A6
:10026000DA989BB39F709BBB2BB3F0E18F9FC001CB
:100270001124822B8BBBDA9A83EF91E00197F1F77F
:1002800000C00000DA980895D898DA98D9988BB30E
:1002900080638BBB8FE097E20197F1F700C000000D
:1002A000DA9ADA9881EE94E00197F1F700C0000045
:1002B000DA9ADA9881EE94E00197F1F700C0000035
:1002C000DA9ADA9883EF91E00197F1F700C0000025
:1002D0008BB380728BBBDA9ADA9888E20E94F600C0
:1002E00083ED90E30197F1F700C000008EE00E94DB
:1002F000F60083ED90E30197F1F700C0000081E084
:100300000E94F60083ED90E30197F1F700C0000032
:1003100086E00E94F60083ED90E30197F1F700C0BC
:10032000000080E80E94F60083ED90E30197F1F76A
:1003300000C000000895CF93DF93EC0189918823DA
:1003400019F00E941D01FACFDF91CF9108958832F4
:1003500028F46111806480680C94F6000895EF928F
:10036000FF920F931F93CF93DF931F92CDB7DEB70A
:100370007C0168EE73E00E949D0A80E3860F69832A
:100380000E941D0188E19CEF6981689F9001699F2F
:10039000300D11242E0D3F1DC901019704E610E018
:1003A000B8010E949D0A80E3860F0E941D01C701CB
:1003B000B8010E949D0A0AE010E0B8010E949D0A5F
:1003C00080E3860F0E941D01C701B8010E949D0AAB
:1003D000805D0F90DF91CF911F910F91FF90EF9073
:1003E0000C941D0180E80E94F60080E690E00E94D7
:1003F0009B0180EC0E94F60080E690E00C949B014B
:10040000FC01108280EF81BB9FE092BBA7E8B3E1C3
:100410001197F1F700C0000020B3208391BB82BB8D
:1004200087E893E10197F1F700C0000080B3908165
:10043000982B90838181981303C08FEF8083089558
:100440009183892F0895E4E1F1E0119281E0E43293
:10045000F807D9F710922501109224010895CF933F
:10046000DF93FC018081873D09F4C4C058F5873BC8
:1004700009F46CC098F48B3709F451C08D3709F436
:100480004BC0873709F0C1C0EF010E9423029C894D
:10049000937F90619C8B1B8A1A8AB7C08D3B09F4AD
:1004A0009EC08E3B09F47AC08B3B09F0AEC08289B6
:1004B00093899C012F5F3F4F338B228BE80FF91FED
:1004C00089E3A2C0873E79F1A0F48D3D09F47CC098
:1004D0008E3D09F458C08B3D09F097C082899389FD
:1004E0009C012F5F3F4F338B228BE80FF91F88E36E
:1004F0008BC08D3E09F45DC08E3ED1F18B3E09F07C
:1005000084C0828993899C012F5F3F4F338B228B5C
:10051000E80FF91F87E378C08489806402C084896A
:100520008062848B72C08489982F9C7069F42289C0
:100530003389A9014F5F5F4F538B428BDF01A20FBD
:10054000B31F98E412969C938860EBCF848982FD58
:100550000DC022893389A9014F5F5F4F538B428BB6
:10056000DF01A20FB31F9DE412969C938460D9CF44
:10057000828993899C012F5F3F4F338B228BE80F39
:10058000F91F81E341C0828993899C012F5F3F4F0E
:10059000338B228BE80FF91F82E336C0828993895F
:1005A0009C012F5F3F4F338B228BE80FF91F83E3B2
:1005B0002BC0828993899C012F5F3F4F338B228B05
:1005C000E80FF91F84E320C0828993899C012F5F83
:1005D0003F4F338B228BE80FF91F85E315C08289CB
:1005E00093899C012F5F3F4F338B228BE80FF91FBC
:1005F00086E30AC0828993899C012F5F3F4F338B2A
:10060000228BE80FF91F80E38283DF91CF91089559
:100610004F925F926F927F928F929F92AF92BF9212
:10062000CF92DF92EF92FF920F931F93CF93DF93BE
:100630007C018B01EA0160E080E00E94A70181E774
:1006400090E00E949B0182E191E00E9400028B37C2
:10065000D1F780E790E0F7019383828360E080E048
:100660000E94A70180E890E00E949B0182E191E056
:100670000E9400028B37D1F7F80113821282F70132
:1006800062817381072E000C880B990B0E947208FF
:100690009B01AC010E9408072BED3FE049E450E4C8
:1006A0000E94C90920E030E041EE53E40E94C807EF
:1006B0006C8B7D8B8E8B9F8B60E080E00E94A7010E
:1006C00081E990E00E949B0182E191E00E9400029A
:1006D0008B37D1F7F70162817381072E000C880BED
:1006E000990B0E94720820E030E041EE53E40E9432
:1006F000C8079B01AC010E9408072BED3FE049E4CD
:1007000050E40E94C9090E94360A4B015C01CC8862
:10071000DD88EE88FF88C701B6010E94360A2B01EA
:100720003C01C701B6010E94C3076B017C0127E1B0
:1007300035E142E45FE3C301B2010E94C9099B01B4
:10074000AC01C501B4010E9407074B015C012CEE0E
:100750003FEE46E25FE3C701B6010E94C9099B0173
:10076000AC01C501B4010E94C8070E94F6066B01E6
:100770007C01F80162817381072E000C880B990BB4
:100780000E9472089B01AC010E9408072BED3FE01C
:1007900049E450E40E94C90920E030E041EE53E40E
:1007A0000E94C8072BED3FE049E450E40E94BE07D9
:1007B000181654F02BED3FE049E450E4C701B601B0
:1007C0000E9408076B017C0122EC3EE547E650E4FD
:1007D000C701B6010E9408070E943A08798368831E
:1007E000DF91CF911F910F91FF90EF90DF90CF900D
:1007F000BF90AF909F908F907F906F905F904F9041
:100800000C94F2012F923F924F925F926F927F92DF
:100810008F929F92AF92BF92CF92DF92EF92FF9210
:100820000F931F93CF93DF9300D000D000D0CDB7AC
:10083000DEB78C011B011E821D821C821B821A8264
:1008400019820E94230260E080E00E94A70182EAF0
:1008500090E00E949B0161E080E00E94A70183EB91
:1008600090E00E949B01C8010E9400028D37D9F7D9
:1008700060E080E00E94A70184EC90E00E949B0170
:1008800061E080E00E94A70185ED90E00E949B015D
:10089000C8010E9400028D37D9F70E94F20160E082
:1008A00080E00E94A70186EE90E00E949B01C801B3
:1008B00002967C01C8010E9400028D3759F061E068
:1008C00080E00E94A701C8010E942F02C7010E9478
:1008D0009B01F0CFFE0131964F01FF93EF935E0134
:1008E000F3E0AF0EB11CBF92AF926E0185E0C80E6F
:1008F000D11CDF92CF9287EF90E09F938F93FF926E
:10090000EF920E94C50A8D819E812FE0289FB00141
:10091000299F700D1124072E000C880B990B0E9443
:1009200072082B013C016B817C81072E000C880B27
:10093000990B0E94720820E030E040E85EE30E94DC
:10094000C9099B01AC01C301B2010E9408072B0138
:100950003C0169817A81072E000C880B990B0E945B
:10096000720829E838E848E85BE30E94C9099B015E
:10097000AC01C301B2010E94080725E33AEF4EE83B
:100980005CE30E94C909F1016087718782879387C0
:100990000E9423020E94F2011E821D821C821B8281
:1009A0001A821982F8018489837F848B60E080E059
:1009B0000E94A70180E091E00E949B010FB6F8948D
:1009C000DEBF0FBECDBFC8010E9400028D3759F0B7
:1009D00061E080E00E94A701C8010E942F02C701C8
:1009E0000E949B01F0CF9F928F92BF92AF92DF92B5
:1009F000CF9287EF90E09F938F93FF92EF920E94A8
:100A0000C50A6D817E81072E000C880B990B0E9410
:100A100072086B017C018B819C81BC01990F880B52
:100A2000990B0E94720820E030E040E752E40E94F7
:100A3000C8079B01AC01C701B6010E9408076B0102
:100A40007C0189819A81BC01990F880B990B0E94C6
:100A5000720820E030E041E655E40E94C8079B019F
:100A6000AC01C701B6010E94080725E33AEF4EE842
:100A70005CE30E94C909F1016483758386839783CF
:100A80000E9423020E94F201F801148A0FB6F89422
:100A9000DEBF0FBECDBF26960FB6F894DEBF0FBEE9
:100AA000CDBFDF91CF911F910F91FF90EF90DF901D
:100AB000CF90BF90AF909F908F907F906F905F90FE
:100AC0004F903F902F9008954F925F926F927F9238
:100AD0008F929F92AF92BF92CF92DF92EF92FF924E
:100AE0000F931F93CF93DF93CDB7DEB764970FB605
:100AF000F894DEBF0FBECDBF8C01FC016081718117
:100B0000072E000C880B990B0E947208F8012085B3
:100B10003185428553850E94070769837A838B83D9
:100B20009C83F80184809580A680B780C501B401BC
:100B30000E94360A2B013C01F801C488D588E6885A
:100B4000F788C701B6010E94360A6D837E838F83C2
:100B50009887C501B4010E94C3074B015C01C7011E
:100B6000B6010E94C30769877A878B879C87698152
:100B70007A818B819C810E94C3076D877E878F87D6
:100B8000988B2D813E814F815885C301B2010E940F
:100B9000C9096B017C0129853A854B855C85C501B6
:100BA000B4010E94C9092D853E854F8558890E9450
:100BB000C9099B01AC01C701B6010E9408070E9448
:100BC00074076B017C01F8016487758786879787B6
:100BD00069817A818B819C810E94360A9B01AC01DC
:100BE000C501B4010E94C909698B7A8B8B8B9C8BE0
:100BF000C301B201905829853A854B855C850E94D6
:100C0000C9092B013C012D813E814F815885C501C9
:100C1000B4010E94C9092D853E854F8558890E94DF
:100C2000C9099B01AC01C301B2010E9408079B01E5
:100C3000AC0169897A898B899C890E94C8070E94C6
:100C40008F074B015C012BED3FE049EC5FE36981CD
:100C50007A818B819C810E94BE0787FD12C024EEA1
:100C60003BEC46E950E469817A818B819C810E944A
:100C7000BC09181634F0F801808A918AA28AB38AD6
:100C80000DC02BED3FE049E450E4C501B4010E94E2
:100C90000807F801608B718B828B938BF801808839
:100CA0009188A288B38820E030E0A901C501B40191
:100CB0000E94BE0718166CF02BED3FE049EC50E4A3
:100CC000C501B4010E940807F801608B718B828B0B
:100CD000938B20E030E041EE53E4C701B6010E945F
:100CE000C9092BED3FE049EC50E40E94C807F80128
:100CF000648775878687978720E030E041EE53E46C
:100D000060897189828993890E94C9092BED3FE02E
:100D100049EC50E40E94C807F801608B718B828B0C
:100D2000938B64960FB6F894DEBF0FBECDBFDF91F4
:100D3000CF911F910F91FF90EF90DF90CF90BF90D8
:100D4000AF909F908F907F906F905F904F9008959D
:100D500008950E9493000E94440182E191E00E9464
:100D6000000282E191E00E942F028091260186FF1D
:100D70000BC06BE271E082E191E00E94020480917D
:100D800026018F7B809326018091260185FF0DC06F
:100D90004BE251E063E471E087E291E00E940803D6
:100DA000809126018F7D809326018091260184FF0A
:100DB00007C00E94F201809126018F7E8093260158
:100DC00080912D0190912E01892B21F08BE291E0F1
:100DD0000E94640580912401909125010F970CF4E5
:100DE000BCCF1092250110922401B7CF9F939F771B
:100DF0000E94AD080F90002042F49058A2EA2AED1C
:100E00003FE049E450E40E941F070C946E095058DB
:100E1000BB27AA270E941F070C946E090E94350960
:100E200038F00E943C0920F039F49F3F19F426F471
:100E30000C94F7080EF4E095E7FB0C94F108E92F09
:100E40000E94930958F3BA1762077307840795073E
:100E500020F079F4A6F50C94B5090EF4E0950B2E6C
:100E6000BA2FA02D0B01B90190010C01CA01A001FC
:100E70001124FF27591B99F0593F50F4503E68F157
:100E80001A16F040A22F232F342F4427585FF3CF98
:100E9000469537952795A795F0405395C9F77EF469
:100EA0001F16BA0B620B730B840BBAF09150A1F0B2
:100EB000FF0FBB1F661F771F881FC2F70EC0BA0F38
:100EC000621F731F841F48F4879577956795B795C0
:100ED000F7959E3F08F0B0CF9395880F08F09927BB
:100EE000EE0F9795879508959F939F77EEE3893747
:100EF0009E0728F4E4E5F0E00E9421090CC00E945E
:100F0000AD089058A2EA2AED3FE049EC5FE30E9469
:100F10001F070E946E090F9007FC90580895DF93F9
:100F2000DD27B92FBF7740E85FE31616170648079D
:100F30005B0718F4D92F0E94C1099F938F937F9369
:100F40006F930E94840AE8E6F0E00E94FA080E948B
:100F50006E092F913F914F915F910E94DC09DD2333
:100F600051F09058A2EA2AED3FE049EC5FE3D078D7
:100F70005D270E941F07DF910C946E090E94CD0827
:100F800008F481E008950E944509E3950C947F09D7
:100F90000E94DC070C946E090E943C0958F00E94E4
:100FA000350940F029F45F3F29F00C94F108511104
:100FB0000C94B6090C94F7080E94930968F39923DE
:100FC000B1F3552391F3951B550BBB27AA27621745
:100FD0007307840738F09F5F5F4F220F331F441F52
:100FE000AA1FA9F335D00E2E3AF0E0E832D0915086
:100FF0005040E695001CCAF72BD0FE2F29D0660F73
:10100000771F881FBB1F261737074807AB07B0E8B5
:1010100009F0BB0B802DBF01FF2793585F4F3AF0BB
:101020009E3F510578F00C94F1080C94B6095F3F8F
:10103000E4F3983ED4F3869577956795B795F79541
:101040009F5FC9F7880F911D9695879597F9089529
:10105000E1E0660F771F881FBB1F621773078407C5
:10106000BA0720F0621B730B840BBA0BEE1F88F7D4
:10107000E09508950E9441086894B1110C94B60956
:1010800008950E949B0988F09F5798F0B92F9927DF
:10109000B751B0F0E1F0660F771F881F991F1AF063
:1010A000BA95C9F714C0B13091F00E94B509B1E00A
:1010B00008950C94B509672F782F8827B85F39F009
:1010C000B93FCCF3869577956795B395D9F73EF4FC
:1010D00090958095709561957F4F8F4F9F4F0895A4
:1010E000E89409C097FB3EF49095809570956195C2
:1010F0007F4F8F4F9F4F9923A9F0F92F96E9BB2778
:101100009395F695879577956795B795F111F8CFF3
:10111000FAF4BB0F11F460FF1BC06F5F7F4F8F4F5E
:101120009F4F16C0882311F096E911C0772321F054
:101130009EE8872F762F05C0662371F096E8862FEC
:1011400070E060E02AF09A95660F771F881FDAF743
:10115000880F9695879597F90895DF93CF931F93FE
:101160000F938B01EC01E5E9F0E00E94FA080E9480
:101170006E099801AE018B01EC0160E070E080E83F
:101180009FE30E9407070E94440A9801AE010F9155
:101190001F91CF91DF910C94DC09990F0008550F36
:1011A000AA0BE0E8FEEF16161706E807F907C0F0ED
:1011B00012161306E407F50798F0621B730B840BF5
:1011C000950B39F40A2661F0232B242B252B21F4CF
:1011D00008950A2609F4A140A6958FEF811D811D6F
:1011E000089597F99F6780E870E060E008959FEFA9
:1011F00080EC0895DF93CF931F930F93FF92EF92AC
:10120000DF927B018C01689406C0DA2EEF010E9408
:10121000DC09FE01E894A591259135914591559100
:10122000A6F3EF010E941F07FE019701A801DA94BF
:1012300069F7DF90EF90FF900F911F91CF91DF91B1
:1012400008959F938F937F936F93FF93EF939B01E9
:10125000AC010E94C909EF91FF910E94FA082F91F9
:101260003F914F915F910C94C90900240A9416167E
:10127000170618060906089500240A941216130684
:101280001406050608950C94F7080E949B09D8F3EC
:10129000E894E0E0BB279F57F0F02AED3FE049ECEF
:1012A00006C0EE0FBB0F661F771F881F28F0B23AEB
:1012B00062077307840728F0B25A620B730B840B22
:1012C000E3959A9572F7803830F49A95BB0F661FB4
:1012D000771F881FD2F790480C948A0A092E03942E
:1012E000000C11F4882352F0BB0F40F4BF2B11F413
:1012F00060FF04C06F5F7F4F8F4F9F4F0895EF9344
:10130000E0FF07C0A2EA2AED3FE049EC5FEB0E9454
:101310001F070E946E090F90039401FC9058EDEB9B
:10132000F0E00C94210957FD9058440F551F59F0D7
:101330005F3F71F04795880F97FB991F61F09F3FC2
:1013400079F087950895121613061406551FF2CFEB
:101350004695F1DF08C0161617061806991FF1CF3B
:1013600086957105610508940895E894BB27662762
:101370007727CB0197F908950E94CD0808F48FEFE5
:1013800008959B01AC0160E070E080E89FE30C945D
:10139000C8070E94DC090C946E090E94350938F0D8
:1013A0000E943C0920F0952311F00C94F1080C9454
:1013B000F70811240C94B6090E94930970F3959FC5
:1013C000C1F3950F50E0551F629FF001729FBB273C
:1013D000F00DB11D639FAA27F00DB11DAA1F649FD8
:1013E0006627B00DA11D661F829F2227B00DA11D8B
:1013F000621F739FB00DA11D621F839FA00D611D11
:10140000221F749F3327A00D611D231F849F600D31
:10141000211D822F762F6A2F11249F5750409AF05A
:10142000F1F088234AF0EE0FFF1FBB1F661F771FE6
:10143000881F91505040A9F79E3F510580F00C94B1
:10144000F1080C94B6095F3FE4F3983ED4F3869517
:1014500077956795B795F795E7959F5FC1F7FE2B51
:10146000880F911D9695879597F908959F930E94EF
:1014700045090F9007FCEE5F0C947F0919F416F4F0
:101480000C94F7080C94880A0E949B09B8F39923DE
:10149000C9F3B6F39F57550B87FF0E94960A0024A5
:1014A000A0E640EA900180585695979528F4805C14
:1014B000660F771F881F20F026173707480730F47C
:1014C000621B730B840B202931294A2BA695179494
:1014D0000794202531254A2758F7660F771F881F64
:1014E00020F026173707480730F4620B730B840B84
:1014F000200D311D411DA09581F7B901842F915810
:10150000880F9695879508959B01AC010C94C909A5
:101510009F3F31F0915020F4879577956795B79567
:10152000880F911D9695879597F908959150504091
:10153000660F771F881FD2F7089597FB072E16F4C2
:10154000009407D077FD09D00E94B10A07FC05D0AE
:101550003EF4909581959F4F0895709561957F4FCA
:101560000895AA1BBB1B51E107C0AA1FBB1FA617EA
:10157000B70710F0A61BB70B881F991F5A95A9F73C
:1015800080959095BC01CD010895AEE0B0E0EBEC04
:10159000FAE00C940A0E85E08C838B899C899A83EF
:1015A0008983AE01495E5F4F6D897E89CE010196C8
:1015B0000E945E0C2E96E2E00C94260E20FD09C0DF
:1015C000FC0123FD05C022FF02C0738362835183A7
:1015D0004083089544FD10C046FD10C0DB01FC01AE
:1015E000AA0FBB1FEE1FFF1F1094D1F76A0F7B1FBE
:1015F0008E1F9F1F31E003C033E001C034E0660F4F
:10160000771F881F991F3150D1F7620F711D811DFF
:10161000911D08950F931F93CF93DF938C01C80101
:101620000E94A00DEC0197FD08C00E948C0D892B33
:10163000B1F7B801CE010E94DE0DCE01DF91CF914E
:101640001F910F910895A1E0B0E0E9E2FBE00C9456
:10165000000E8C01C62E7A0129830E94A00DAC01D8
:10166000552729814B32510521F04D32510569F43E
:101670002068CA94C11002C080E076C0C8012983E6
:101680000E94A00D298197FDF7CF322F3D7FD32EE9
:10169000322F307349F5803339F5BB24BA94BC0C32
:1016A00009F44EC0C80129830E94A00D298197FD2D
:1016B00047C0382F3F7D383569F48D2D8264D82E90
:1016C000CA94CA94CC20E1F1C8010E94A00D97FFF2
:1016D0000BC036C026FF04C02D2D2260D22E03C0C1
:1016E0003D2D3261D32ECB2C812C912C540120ED39
:1016F000280F283080F0D4FE04C0B8010E94DE0D0F
:101700001CC02A3040F0D6FEF8CF2F7D3FEE320FBE
:10171000363098F727504D2DC501B4010E94EA0AD2
:101720004B015C018D2D8260D82ECA94CC2059F0DB
:10173000C8010E94A00D97FFDACFD1FC04C09CCF56
:10174000812C912C5401D7FE08C0B094A0949094A1
:101750008094811C911CA11CB11C2D2DB501A401EC
:10176000C7010E94DE0A81E02196ECE00C941C0E79
:10177000A1E2B0E0EEEBFBE00C94FE0D5C017A011F
:10178000CE0101966C0180E2F60111928A95E9F78B
:10179000F501838040E050E0912C712C70E0A1E0D5
:1017A000B0E0F90183FC859183FE81918F01982F30
:1017B0009F01811103C080E090E07CC08E3519F458
:1017C0004115510549F1E72FF0E0E417F5073CF426
:1017D0008D3559F18D3219F4772001F103C0711064
:1017E00001C0982E892F8695869586958601080FCB
:1017F000111D892F87703D0101C0660C8A95EAF79B
:10180000F801808186298083991559F0991510F483
:101810009F5FE8CF9150E6CF71E004C077247394C6
:1018200001C0712C4F5F5F4FBCCF772019F08E81C4
:1018300080628E83711103C09924939416C0F601BF
:101840009E012F5D3F4F808180958193E217F307C2
:10185000D1F7F2CFE114F10429F0F7018083C70139
:1018600001967C016150912CF9F0C50169A30E9499
:10187000A00D69A197FD16C0282F269526952695BF
:10188000F601E20FF11D208130E0AC0147705527D1
:1018900002C0359527954A95E2F720FDDBCFB501CB
:1018A0000E94DE0D911087CFE114F10411F0F701D1
:1018B0001082C801A196EEE00C941A0E4F925F922E
:1018C0007F928F929F92AF92BF92CF92DF92EF92D0
:1018D000FF920F931F93CF93DF931F92CDB7DEB785
:1018E0006C012B015A01FC0117821682712CF60142
:1018F000F380F201F3FC8591F3FE8191382F2F01E3
:10190000882309F4F3C090E039830E948C0D39815B
:10191000892B21F0C6010E940A0BE9CF353241F430
:10192000F201F3FC3591F3FE31912F01353269F468
:10193000C60139830E94A00D398197FDD5C03817A3
:10194000B1F2B6010E94DE0DD1C03A3239F4F3FC97
:101950003591F3FE31912F0151E001C050E0420179
:1019600010E020ED230F2A3090F45260612F70E0D8
:1019700080E090E040E259830E94EA0A162FF401C9
:10198000F3FC3591F3FE31914F015981EACF052FD8
:10199000232F240151FF03C0111102C0A7C01FEF64
:1019A000383619F03C3659F011C0F401F3FC25919A
:1019B000F3FE21912F01283649F4052F08600460B9
:1019C000F201F3FC2591F3FE21912F01222309F46A
:1019D0008DC0622F70E08CED90E029830E94950D00
:1019E0002981892B09F482C000FD07C0F501E08040
:1019F000F180C50102965C0102C0E12CF12C2E366B
:101A000051F4F6014681578160E070E0202FC70154
:101A10000E94DE0A6CCF233691F401FF11E0C6016B
:101A20000E94A00D97FD60C0E114F10429F0F701B8
:101A30008083C70101967C01115089F751C02B3575
:101A400059F49201A701612FC6010E94B80B2C0125
:101A5000892B09F045C03FC0C60129830E940A0BAB
:101A6000298197FD41C02F3659F128F4243631F1F0
:101A7000293649F127C0233769F02537F9F022C00C
:101A8000E114F10429F0F7018082C70101967C017D
:101A9000115071F0C6010E94A00D4C0197FD08C0C5
:101AA0000E948C0D892B61F3B601C4010E94DE0DEA
:101AB000E114F104A9F0F701108212C0006203C022
:101AC000006101C00064202FA701612FC6010E94A0
:101AD000230B811105C0F6018381807329F406C0B0
:101AE00000FD05CF739403CF772019F0872D90E088
:101AF00002C08FEF9FEF0F90DF91CF911F910F9159
:101B0000FF90EF90DF90CF90BF90AF909F908F901D
:101B10007F905F904F90089591110C94F70D803253
:101B200019F089508550C8F70895FC0105900616F4
:101B300021F00020D9F7C00108953197CF01089511
:101B4000CF93DF93EC012B8120FF33C026FF0AC027
:101B50002F7B2B838E819F8101969F838E838A8129
:101B600090E029C022FF0FC0E881F9818081082E12
:101B7000000C990B009719F420622B831AC0319640
:101B8000F983E8830EC0EA85FB85099597FF09C0B4
:101B90002B81019611F080E201C080E1822B8B83C2
:101BA00008C02E813F812F5F3F4F3F832E839927AF
:101BB00002C08FEF9FEFDF91CF910895FB0123814A
:101BC00020FF12C026FD10C08F3F3FEF930761F04A
:101BD00082832F7D20642383268137812150310920
:101BE00037832683992708958FEF9FEF08959927CC
:101BF000882708952F923F924F925F926F927F9223
:101C00008F929F92AF92BF92CF92DF92EF92FF920C
:101C10000F931F93CF93DF93CDB7DEB7CA1BDB0BB8
:101C20000FB6F894DEBF0FBECDBF09942A8839885D
:101C300048885F846E847D848C849B84AA84B98464
:101C4000C884DF80EE80FD800C811B81AA81B98170
:101C5000CE0FD11D0FB6F894DEBF0FBECDBFED0184
:061C60000895F894FFCF87
:101C6600202020202020202020202020202020206E
:101C760000476F746F207A656E69742D3E204300AD
:101C8600476F746F20706F6C617269732D3E2043CD
:101C960000476F746F20616C6B616964202D3E2074
:101CA6004300706F64616A2064656B6C2069205222
:101CB600412000666F726D6174207848794D7A20F4
:101CC6002D3E42006F7A6E61637A656E69613A20D5
:101CD600202020200048282A29204D28232920209A
:101CE60020202D3E4200706F64616A205241202000
:101CF6002020202D3E420025694825694D25690092
:101D060064656B6C204820746F207374202D3E42EE
:021D16000000CB
:00000001FF
