:100000000C9430000C9486000C9490000C944D00DD
:100010000C944D000C944D000C946D000C944D000C
:100020000C944D000C944D000C944D000C944D001C
:100030000C944D000C944D000C944D000C944D000C
:100040000C944D000C944D000C944D000C944D00FC
:100050000C944D006364696E6F70737578585B0023
:1000600011241FBECFE5D4E0DEBFCDBF11E0A0E676
:10007000B0E0EAEEF4E102C005900D92A432B107BF
:10008000D9F721E0A4E2B1E001C01D92A335B20787
:10009000E1F70E946F040C94730A0C94000085B77A
:1000A000856085BF8BB7806C8BBF8FEF8ABBE4E226
:1000B000F1E0138A128A148A81839FB59FBD9EB591
:1000C0009B609EBD22E13AE73BBD2ABD99B7906196
:1000D00099BF789484BB85BB08951F920F920FB689
:1000E0000F9211248F939F93EF93FF93EDE3F1E031
:1000F00080819181019691838083FF91EF919F91FF
:100100008F910F900FBE0F901F9018951F920F9216
:100110000FB60F9211240F900FBE0F901F901895DD
:100120001F920F920FB60F9211240F900FBE0F90D7
:100130001F901895D898DA98D9989BB39F709BBB5D
:100140009BB3282F207F922B9BBBD998DA9AE3EFA1
:10015000F1E03197F1F700C00000DA989BB39F708F
:100160009BBB2BB3F0E18F9FC0011124822B8BBB73
:10017000DA9A83EF91E00197F1F700C00000DA9876
:100180000895D89AD998DA989BB39F709BBB9BB37C
:10019000282F207F922B9BBBD998DA9AE3EFF1E0CE
:1001A0003197F1F700C00000DA989BB39F709BBBBA
:1001B0002BB3F0E18F9FC0011124822B8BBBDA9A05
:1001C00083EF91E00197F1F700C00000DA980895FD
:1001D000D898DA98D9988BB380638BBB8FE097E27D
:1001E0000197F1F700C00000DA9ADA9881EE94E006
:1001F0000197F1F700C00000DA9ADA9881EE94E0F6
:100200000197F1F700C00000DA9ADA9883EF91E0E5
:100210000197F1F700C000008BB380728BBBDA9AB4
:10022000DA9888E20E949A0083ED90E30197F1F753
:1002300000C000008EE00E949A0083ED90E30197D9
:10024000F1F700C0000081E00E949A0083ED90E386
:100250000197F1F700C0000086E00E949A0083ED4C
:1002600090E30197F1F700C0000080E80E949A0037
:1002700083ED90E30197F1F700C000000895CF935C
:10028000DF93EC018991882319F00E94C100FACF15
:10029000DF91CF910895883228F4611180648068DD
:1002A0000C949A000895EF92FF920F931F93CF93AF
:1002B000DF931F92CDB7DEB77C0168EE73E00E943A
:1002C000DF0680E3860F69830E94C10088E19CEF0E
:1002D0006981689F9001699F300D11242E0D3F1D8B
:1002E000C901019704E610E0B8010E94DF0680E32F
:1002F000860F0E94C100C701B8010E94DF060AE014
:1003000010E0B8010E94DF0680E3860F0E94C10062
:10031000C701B8010E94DF06805D0F90DF91CF9189
:100320001F910F91FF90EF900C94C10080E80E9404
:100330009A0081E890E00E943F0180EC0E949A00C0
:1003400081E890E00C943F01FC01108280EF81BBBA
:100350009FE092BBA7E8B3E11197F1F700C000005E
:1003600020B3208391BB82BB87E893E10197F1F72B
:1003700000C0000080B39081982B908381819813F6
:1003800003C08FEF808308959183892F0895E6E25B
:10039000F1E0119281E0E633F807D9F710923701C6
:1003A000109236010895CF93DF93FC018081873D41
:1003B00009F4C4C058F5873B09F46CC098F48B3736
:1003C00009F451C08D3709F44BC0873709F0C1C01B
:1003D000EF010E94C7019C89937F90619C8B1B8ACF
:1003E0001A8AB7C08D3B09F49EC08E3B09F47AC0CF
:1003F0008B3B09F0AEC0828993899C012F5F3F4FF0
:10040000338B228BE80FF91F89E3A2C0873E79F175
:10041000A0F48D3D09F47CC08E3D09F458C08B3D9D
:1004200009F097C0828993899C012F5F3F4F338BDE
:10043000228BE80FF91F88E38BC08D3E09F45DC065
:100440008E3ED1F18B3E09F084C0828993899C0154
:100450002F5F3F4F338B228BE80FF91F87E378C064
:100460008489806402C084898062848B72C084899C
:10047000982F9C7069F422893389A9014F5F5F4FDF
:10048000538B428BDF01A20FB31F98E412969C930B
:100490008860EBCF848982FD0DC022893389A90150
:1004A0004F5F5F4F538B428BDF01A20FB31F9DE461
:1004B00012969C938460D9CF828993899C012F5F87
:1004C0003F4F338B228BE80FF91F81E341C08289B4
:1004D00093899C012F5F3F4F338B228BE80FF91FCD
:1004E00082E336C0828993899C012F5F3F4F338B13
:1004F000228BE80FF91F83E32BC0828993899C012B
:100500002F5F3F4F338B228BE80FF91F84E320C00E
:10051000828993899C012F5F3F4F338B228BE80F99
:10052000F91F85E315C0828993899C012F5F3F4F96
:10053000338B228BE80FF91F86E30AC082899389E7
:100540009C012F5F3F4F338B228BE80FF91F80E315
:100550008283DF91CF910895EF92FF920F931F93C3
:10056000CF93DF937C018B01EA0160E080E00E9481
:100570004B0182E990E00E943F0184E291E00E94F9
:10058000A4018B37D1F7F7011382128260E080E07B
:100590000E944B0183EA90E00E943F0184E291E0D7
:1005A0000E94A4018B37D1F7F801138212821982BD
:1005B0001882DF91CF911F910F91FF90EF900C94D3
:1005C00096012F923F924F925F926F927F928F92FD
:1005D0009F92AF92BF92CF92DF92EF92FF920F93D2
:1005E0001F93CF93DF9300D000D000D0CDB7DEB7FC
:1005F0008C011B011E821D821C821B821A821982A1
:1006000061E080E00E944B018D819E810E94530138
:1006100061E086E00E944B018B819C810E94530126
:1006200061E08BE00E944B0189819A810E94530115
:10063000C8010E94A4018D37D9F70E94C70160E06C
:1006400080E00E944B0184EB90E00E943F0161E05A
:1006500080E00E944B0185EC90E00E943F01C801C0
:100660000E94A4018D37D9F760E080E00E944B0121
:1006700086ED90E00E943F0161E080E00E944B0126
:1006800087EE90E00E943F01C8010E94A4018D37CF
:10069000D9F70E94960160E080E00E944B0188EF4C
:1006A00090E00E943F01C80102967C01C8010E94AF
:1006B000A4018D3759F061E080E00E944B01C80130
:1006C0000E94D301C7010E943F01F0CFFE01319685
:1006D0004F01FF93EF935E01F3E0AF0EB11CBF92A9
:1006E000AF926E0185E0C80ED11CDF92CF9289E0F7
:1006F00091E09F938F93FF92EF920E94070761E032
:1007000080E00E944B018D819E810E94530161E037
:1007100086E00E944B018B819C810E94530161E025
:100720008BE00E944B0189819A810E9453010FB690
:10073000F894DEBF0FBECDBFC8010E94A4018D3763
:10074000D9F78D819E812FE0289FB001299F700DE0
:100750001124072E000C880B990B0E94C2052B0157
:100760003C016B817C81072E000C880B990B0E9449
:10077000C20520E030E040E85EE30E9472069B0183
:10078000AC01C301B2010E94DD042B013C0169816F
:100790007A81072E000C880B990B0E94C20529E86C
:1007A00038E848E85BE30E9472069B01AC01C30194
:1007B000B2010E94DD04F10166837783808791870F
:1007C0000E94C7010E9496011E821D821C821B820C
:1007D0001A821982F8018489837F848B60E080E02B
:1007E0000E944B0182E191E00E943F01C8010E94FA
:1007F000A4018D3749F061E080E00E944B01C801FF
:100800000E94D301C701F0CF9F928F92BF92AF9207
:10081000DF92CF9289E091E09F938F93FF92EF92C6
:100820000E9407076D817E81072E000C880B990BB3
:100830000E94C2056B017C018B819C81BC01990FD8
:10084000880B990B0E94C20520E030E040E752E49B
:100850000E944E059B01AC01C701B6010E94DD0458
:100860006B017C0189819A81BC01990F880B990BDE
:100870000E94C20520E030E041E655E40E944E05AA
:100880009B01AC01C701B6010E94DD04F101628346
:100890007383848395830E94C7010E949601F801A7
:1008A000148A0FB6F894DEBF0FBECDBF26960FB6E2
:1008B000F894DEBF0FBECDBFDF91CF911F910F9196
:1008C000FF90EF90DF90CF90BF90AF909F908F9070
:1008D0007F906F905F904F903F902F9008950E946F
:1008E0004F000E94E80084E291E00E94A40184E2AB
:1008F00091E00E94D3018091380186FF0BC06DE327
:1009000071E084E291E00E94E102809138018F7BE6
:10091000809338018091380185FF0DC04DE351E08F
:100920006FE471E089E391E00E94AC0280913801AC
:100930008F7D809338018091380184FF07C00E9429
:100940009601809138018F7E8093380160E080E0CD
:100950000E944B01C0904301D0904401E0904501BA
:10096000F090460121E131E847E353E4C701B601C5
:100970000E944905811103C080E690E00FC020E08D
:1009800030E044E353E4C701B6010E9449058111F8
:1009900003C08AE690E002C081E790E00E943F0138
:1009A00080913601909137010F970CF49CCF1092F3
:1009B00037011092360197CF5058BB27AA270E94C3
:1009C000F4040C9438060E942A0638F00E9431067E
:1009D00020F039F49F3F19F426F40C9427060EF406
:1009E000E095E7FB0C942106E92F0E94490658F395
:1009F000BA17620773078407950720F079F4A6F504
:100A00000C946B060EF4E0950B2EBA2FA02D0B0163
:100A1000B90190010C01CA01A0011124FF27591B43
:100A200099F0593F50F4503E68F11A16F040A22F49
:100A3000232F342F4427585FF3CF469537952795BA
:100A4000A795F0405395C9F77EF41F16BA0B620BB9
:100A5000730B840BBAF09150A1F0FF0FBB1F661F00
:100A6000771F881FC2F70EC0BA0F621F731F841F43
:100A700048F4879577956795B795F7959E3F08F069
:100A8000B0CF9395880F08F09927EE0F979587952B
:100A900008950E94FD0508F481E008950E94620512
:100AA0000C9438060E94310658F00E942A0640F045
:100AB00029F45F3F29F00C94210651110C946C0627
:100AC0000C9427060E94490668F39923B1F3552335
:100AD00091F3951B550BBB27AA2762177307840751
:100AE00038F09F5F5F4F220F331F441FAA1FA9F3E7
:100AF00035D00E2E3AF0E0E832D091505040E695D5
:100B0000001CCAF72BD0FE2F29D0660F771F881F35
:100B1000BB1F261737074807AB07B0E809F0BB0B28
:100B2000802DBF01FF2793585F4F3AF09E3F51053C
:100B300078F00C9421060C946C065F3FE4F3983E29
:100B4000D4F3869577956795B795F7959F5FC9F725
:100B5000880F911D9695879597F90895E1E0660FA6
:100B6000771F881FBB1F621773078407BA0720F01F
:100B7000621B730B840BBA0BEE1F88F7E095089588
:100B8000E89409C097FB3EF4909580957095619527
:100B90007F4F8F4F9F4F9923A9F0F92F96E9BB27DD
:100BA0009395F695879577956795B795F111F8CF59
:100BB000FAF4BB0F11F460FF1BC06F5F7F4F8F4FC4
:100BC0009F4F16C0882311F096E911C0772321F0BA
:100BD0009EE8872F762F05C0662371F096E8862F52
:100BE00070E060E02AF09A95660F771F881FDAF7A9
:100BF000880F9695879597F90895990F0008550FD6
:100C0000AA0BE0E8FEEF16161706E807F907C0F092
:100C100012161306E407F50798F0621B730B840B9A
:100C2000950B39F40A2661F0232B242B252B21F474
:100C300008950A2609F4A140A6958FEF811D811D14
:100C4000089597F99F6780E870E060E008959FEF4E
:100C500080EC089500240A94161617061806090653
:100C6000089500240A941216130614060506089522
:100C7000092E0394000C11F4882352F0BB0F40F4AA
:100C8000BF2B11F460FF04C06F5F7F4F8F4F9F4FEA
:100C9000089557FD9058440F551F59F05F3F71F06C
:100CA0004795880F97FB991F61F09F3F79F08795D3
:100CB0000895121613061406551FF2CF4695F1DF5C
:100CC00008C0161617061806991FF1CF86957105EC
:100CD000610508940895E894BB2766277727CB0120
:100CE00097F908950E9485060C9438060E942A06FA
:100CF00038F00E94310620F0952311F00C94210663
:100D00000C94270611240C946C060E94490670F37B
:100D1000959FC1F3950F50E0551F629FF001729FA0
:100D2000BB27F00DB11D639FAA27F00DB11DAA1FAF
:100D3000649F6627B00DA11D661F829F2227B00DFC
:100D4000A11D621F739FB00DA11D621F839FA00D87
:100D5000611D221F749F3327A00D611D231F849FD7
:100D6000600D211D822F762F6A2F11249F5750402E
:100D70009AF0F1F088234AF0EE0FFF1FBB1F661FA9
:100D8000771F881F91505040A9F79E3F510580F072
:100D90000C9421060C946C065F3FE4F3983ED4F368
:100DA000869577956795B795F795E7959F5FC1F716
:100DB000FE2B880F911D9695879597F9089597FBBF
:100DC000072E16F4009407D077FD09D00E94F30691
:100DD00007FC05D03EF4909581959F4F089570953E
:100DE00061957F4F0895AA1BBB1B51E107C0AA1F45
:100DF000BB1FA617B70710F0A61BB70B881F991FBC
:100E00005A95A9F780959095BC01CD010895AEE063
:100E1000B0E0EDE0F7E00C944C0A85E08C838B8920
:100E20009C899A838983AE01495E5F4F6D897E8973
:100E3000CE0101960E94A0082E96E2E00C94680A6A
:100E400020FD09C0FC0123FD05C022FF02C0738301
:100E5000628351834083089544FD10C046FD10C055
:100E6000DB01FC01AA0FBB1FEE1FFF1F1094D1F77F
:100E70006A0F7B1F8E1F9F1F31E003C033E001C04C
:100E800034E0660F771F881F991F3150D1F7620F2A
:100E9000711D811D911D08950F931F93CF93DF93B3
:100EA0008C01C8010E94E209EC0197FD08C00E9474
:100EB000CE09892BB1F7B801CE010E94200ACE01DC
:100EC000DF91CF911F910F910895A1E0B0E0EBE683
:100ED000F7E00C94420A8C01C62E7A0129830E9405
:100EE000E209AC01552729814B32510521F04D32E1
:100EF000510569F42068CA94C11002C080E076C030
:100F0000C80129830E94E209298197FDF7CF322F7A
:100F10003D7FD32E322F307349F5803339F5BB2412
:100F2000BA94BC0C09F44EC0C80129830E94E2099E
:100F3000298197FD47C0382F3F7D383569F48D2DC5
:100F40008264D82ECA94CA94CC20E1F1C8010E94D0
:100F5000E20997FF0BC036C026FF04C02D2D22608A
:100F6000D22E03C03D2D3261D32ECB2C812C912C5F
:100F7000540120ED280F283080F0D4FE04C0B801C1
:100F80000E94200A1CC02A3040F0D6FEF8CF2F7DE8
:100F90003FEE320F363098F727504D2DC501B40182
:100FA0000E942C074B015C018D2D8260D82ECA94C3
:100FB000CC2059F0C8010E94E20997FFDACFD1FC9A
:100FC00004C09CCF812C912C5401D7FE08C0B09452
:100FD000A09490948094811C911CA11CB11C2D2D77
:100FE000B501A401C7010E94200781E02196ECE031
:100FF0000C945E0AA1E2B0E0E0E0F8E00C94400A54
:101000005C017A01CE0101966C0180E2F601119239
:101010008A95E9F7F501838040E050E0912C712C2E
:1010200070E0A1E0B0E0F90183FC859183FE81913D
:101030008F01982F9F01811103C080E090E07CC058
:101040008E3519F44115510549F1E72FF0E0E41709
:10105000F5073CF48D3559F18D3219F4772001F103
:1010600003C0711001C0982E892F869586958695AC
:101070008601080F111D892F87703D0101C0660C84
:101080008A95EAF7F801808186298083991559F0BD
:10109000991510F49F5FE8CF9150E6CF71E004C03E
:1010A0007724739401C0712C4F5F5F4FBCCF7720C2
:1010B00019F08E8180628E83711103C099249394FC
:1010C00016C0F6019E012F5D3F4F80818095819370
:1010D000E217F307D1F7F2CFE114F10429F0F70199
:1010E0008083C70101967C016150912CF9F0C50104
:1010F00069A30E94E20969A197FD16C0282F2695D1
:1011000026952695F601E20FF11D208130E0AC0115
:101110004770552702C0359527954A95E2F720FD7F
:10112000DBCFB5010E94200A911087CFE114F104B2
:1011300011F0F7011082C801A196EEE00C945C0A50
:101140004F925F927F928F929F92AF92BF92CF9277
:10115000DF92EF92FF920F931F93CF93DF931F9233
:10116000CDB7DEB76C012B015A01FC011782168244
:10117000712CF601F380F201F3FC8591F3FE81916D
:10118000382F2F01882309F4F3C090E039830E949F
:10119000CE093981892B21F0C6010E944C07E9CF85
:1011A000353241F4F201F3FC3591F3FE31912F0118
:1011B000353269F4C60139830E94E209398197FD0D
:1011C000D5C03817B1F2B6010E94200AD1C03A3218
:1011D00039F4F3FC3591F3FE31912F0151E001C058
:1011E00050E0420110E020ED230F2A3090F45260CD
:1011F000612F70E080E090E040E259830E942C076C
:10120000162FF401F3FC3591F3FE31914F01598112
:10121000EACF052F232F240151FF03C0111102C073
:10122000A7C01FEF383619F03C3659F011C0F40151
:10123000F3FC2591F3FE21912F01283649F4052F67
:1012400008600460F201F3FC2591F3FE21912F0167
:10125000222309F48DC0622F70E084E590E0298399
:101260000E94D7092981892B09F482C000FD07C09B
:10127000F501E080F180C50102965C0102C0E12C1D
:10128000F12C2E3651F4F6014681578160E070E072
:10129000202FC7010E9420076CCF233691F401FF55
:1012A00011E0C6010E94E20997FD60C0E114F1045B
:1012B00029F0F7018083C70101967C01115089F75D
:1012C00051C02B3559F49201A701612FC6010E942C
:1012D000FA072C01892B09F045C03FC0C6012983BC
:1012E0000E944C07298197FD41C02F3659F128F4FF
:1012F000243631F1293649F127C0233769F02537E3
:10130000F9F022C0E114F10429F0F7018082C7014D
:1013100001967C01115071F0C6010E94E2094C0156
:1013200097FD08C00E94CE09892B61F3B601C40164
:101330000E94200AE114F104A9F0F701108212C002
:10134000006203C0006101C00064202FA701612F6B
:10135000C6010E946507811105C0F6018381807373
:1013600029F406C000FD05CF739403CF772019F050
:10137000872D90E002C08FEF9FEF0F90DF91CF910C
:101380001F910F91FF90EF90DF90CF90BF90AF90A3
:101390009F908F907F905F904F90089591110C9443
:1013A000390A803219F089508550C8F70895FC0138
:1013B0000590061621F00020D9F7C0010895319755
:1013C000CF010895CF93DF93EC012B8120FF33C031
:1013D00026FF0AC02F7B2B838E819F8101969F83DE
:1013E0008E838A8190E029C022FF0FC0E881F981B5
:1013F0008081082E000C990B009719F420622B8332
:101400001AC03196F983E8830EC0EA85FB850995F9
:1014100097FF09C02B81019611F080E201C080E1A5
:10142000822B8B8308C02E813F812F5F3F4F3F83EC
:101430002E83992702C08FEF9FEFDF91CF91089500
:10144000FB01238120FF12C026FD10C08F3F3FEF1C
:10145000930761F082832F7D206423832681378167
:101460002150310937832683992708958FEF9FEF05
:1014700008959927882708952F923F924F925F925F
:101480006F927F928F929F92AF92BF92CF92DF9294
:10149000EF92FF920F931F93CF93DF93CDB7DEB7F9
:1014A000CA1BDB0B0FB6F894DEBF0FBECDBF09948D
:1014B0002A88398848885F846E847D848C849B84E4
:1014C000AA84B984C884DF80EE80FD800C811B81F2
:1014D000AA81B981CE0FD11D0FB6F894DEBF0FBE21
:0A14E000CDBFED010895F894FFCF91
:1014EA00706F707261776E696500636F7374616D96
:1014FA0000706F737A6C6F207720627572616B6906
:10150A0000202020202020202020202020202020F1
:10151A002000476F746F20706F6C617269732D3E83
:10152A00204300476F746F20616C6B616964202DE2
:10153A003E204300706F64616A2064656B6C2069A9
:10154A002052412000666F726D6174207848794D8F
:10155A007A202D3E42006F7A6E61637A656E696108
:10156A003A20202020200048282A29204D282329F3
:10157A00202020202D3E4200706F64616A20524173
:10158A0020202020202D3E420025694825694D252E
:10159A00690064656B6C204820746F207374202D79
:0415AA003E420000BD
:00000001FF
