:100000000C942A000C947C000C94A2000C944700E1
:100010000C9447000C9447000C9472000C94470019
:100020000C9447000C9447000C9447000C94470034
:100030000C9447000C9447000C9447000C94470024
:100040000C9447000C9447000C9447000C94470014
:100050000C94470011241FBECFE5D4E0DEBFCDBF16
:1000600010E0A0E6B0E0EEE1F5E002C005900D92F0
:10007000A037B107D9F720E0A0E7B0E001C01D929A
:10008000AA37B207E1F70E9444020C948D020C9447
:10009000000085B7856085BF8BB7806C8BBF8FEF05
:1000A0008ABB11BA8FE082BBE0E7F0E084E0808396
:1000B00081E0818313821282E4E7F0E088E08083AC
:1000C00082E08183138212828FB58FBD8EB58B60E3
:1000D0008EBD82E19AE79BBD8ABD89B7806189BFE9
:1000E000789408951F920F920FB60F9211240F90DB
:1000F0000FBE0F901F9018951F920F920FB60F9280
:1001000011242F933F934F935F936F937F938F931C
:100110009F93AF93BF93EF93FF9380E790E00E948C
:100120002D02FF91EF91BF91AF919F918F917F91A0
:100130006F915F914F913F912F910F900FBE0F9054
:100140001F9018951F920F920FB60F9211242F93A4
:100150003F934F935F936F937F938F939F93AF934F
:10016000BF93EF93FF9384E790E00E942D02FF91ED
:10017000EF91BF91AF919F918F917F916F915F911F
:100180004F913F912F910F900FBE0F901F90189598
:10019000D898DA98D9989BB39F709BBB9BB3282FB4
:1001A000207F922B9BBBD998DA9AE3EFF1E031974D
:1001B000F1F700C00000DA989BB39F709BBB2BB394
:1001C000F0E18F9FC0011124822B8BBBDA9A83EF61
:1001D00091E00197F1F700C00000DA980895D89AED
:1001E000D998DA989BB39F709BBB9BB3282F207F35
:1001F000922B9BBBD998DA9AE3EFF1E03197F1F7B4
:1002000000C00000DA989BB39F709BBB2BB3F0E15A
:100210008F9FC0011124822B8BBBDA9A83EF91E070
:100220000197F1F700C00000DA980895D898DA989D
:10023000D9988BB380638BBB8FE097E20197F1F77E
:1002400000C00000DA9ADA9881EE94E00197F1F7A5
:1002500000C00000DA9ADA9881EE94E00197F1F795
:1002600000C00000DA9ADA9883EF91E00197F1F785
:1002700000C000008BB380728BBBDA9ADA9888E2F8
:100280000E94C80083ED90E30197F1F700C00000E1
:100290008EE00E94C80083ED90E30197F1F700C063
:1002A000000081E00E94C80083ED90E30197F1F720
:1002B00000C0000086E00E94C80083ED90E3019733
:1002C000F1F700C0000080E80E94C80083ED90E3D1
:1002D0000197F1F700C000000895CF93DF93EC0180
:1002E0008991882319F00E94EF00FACFDF91CF9116
:1002F0000895883228F46111806480680C94C800E5
:100300000895EF92FF920F931F93CF93DF931F9265
:10031000CDB7DEB77C0168EE73E00E94650280E332
:10032000860F69830E94EF0088E19CEF6981689FD6
:100330009001699F300D11242E0D3F1DC9010197B9
:1003400004E610E0B8010E94650280E3860F0E9477
:10035000EF00C701B8010E9465020AE010E0B80191
:100360000E94650280E3860F0E94EF00C701B8017A
:100370000E946502805D0F90DF91CF911F910F91D8
:10038000FF90EF900C94EF001092790080EF84BB07
:100390009FE095BBEFE4F3EC3197F1F700C000006C
:1003A00023B32093790094BB85BBEFE4F3EC319742
:1003B000F1F700C0000023B380917900822B809375
:1003C00079008E3B89F1A0F48E3781F140F48B37B0
:1003D000E9F18D3799F18737D9F580E122C08B3B60
:1003E00099F18D3B49F1873B99F59093780032C0A4
:1003F0008E3DB1F040F48B3D29F18D3DD9F0873D24
:1004000039F58EE00EC08B3ED9F020F4873E01F521
:100410008DE007C08D3E61F08E3ED1F481E001C0D9
:1004200082E08093780016C083E0FBCF84E0F9CFB0
:1004300085E0F7CF86E0F5CF87E0F3CF88E0F1CF16
:1004400089E0EFCF8AE0EDCF8BE0EBCF8CE0E9CF16
:1004500010927800809178000895FC0190B380811B
:100460008923918122813381882331F080B39823BD
:1004700031F02150310905C080B39823D1F32F5FAB
:100480003F4F3383228308950E9449000E94160142
:1004900080E690E00E946D0160E080E00E947901BA
:1004A00087E690E00E946D01809172009091730048
:1004B0000E9481018BE690E00E946D0180917600A0
:1004C000909177000E948101E7CF97FB072E16F4E9
:1004D000009407D077FD09D00E94790207FC05D06F
:1004E0003EF4909581959F4F0895709561957F4F4B
:1004F0000895AA1BBB1B51E107C0AA1FBB1FA6176B
:10050000B70710F0A61BB70B881F991F5A95A9F7BC
:0E05100080959095BC01CD010895F894FFCF21
:10051E0050555348544F0045313D002045323D0063
:00000001FF
